Archive member included to satisfy reference by file (symbol)

/home/delusion/bin/Ac6_SystemWorkbench/plugins/fr.ac6.mcu.externaltools.arm-none.linux64_1.17.0.201812190825/tools/compiler/bin/../lib/gcc/arm-none-eabi/7.3.1/../../../../arm-none-eabi/lib/thumb/v7e-m/fpv4-sp/hard/libc_nano.a(lib_a-exit.o)
                              /home/delusion/bin/Ac6_SystemWorkbench/plugins/fr.ac6.mcu.externaltools.arm-none.linux64_1.17.0.201812190825/tools/compiler/bin/../lib/gcc/arm-none-eabi/7.3.1/../../../../arm-none-eabi/lib/thumb/v7e-m/fpv4-sp/hard/crt0.o (exit)
/home/delusion/bin/Ac6_SystemWorkbench/plugins/fr.ac6.mcu.externaltools.arm-none.linux64_1.17.0.201812190825/tools/compiler/bin/../lib/gcc/arm-none-eabi/7.3.1/../../../../arm-none-eabi/lib/thumb/v7e-m/fpv4-sp/hard/libc_nano.a(lib_a-impure.o)
                              /home/delusion/bin/Ac6_SystemWorkbench/plugins/fr.ac6.mcu.externaltools.arm-none.linux64_1.17.0.201812190825/tools/compiler/bin/../lib/gcc/arm-none-eabi/7.3.1/../../../../arm-none-eabi/lib/thumb/v7e-m/fpv4-sp/hard/libc_nano.a(lib_a-exit.o) (_global_impure_ptr)
/home/delusion/bin/Ac6_SystemWorkbench/plugins/fr.ac6.mcu.externaltools.arm-none.linux64_1.17.0.201812190825/tools/compiler/bin/../lib/gcc/arm-none-eabi/7.3.1/../../../../arm-none-eabi/lib/thumb/v7e-m/fpv4-sp/hard/libc_nano.a(lib_a-init.o)
                              /home/delusion/bin/Ac6_SystemWorkbench/plugins/fr.ac6.mcu.externaltools.arm-none.linux64_1.17.0.201812190825/tools/compiler/bin/../lib/gcc/arm-none-eabi/7.3.1/../../../../arm-none-eabi/lib/thumb/v7e-m/fpv4-sp/hard/crt0.o (__libc_init_array)
/home/delusion/bin/Ac6_SystemWorkbench/plugins/fr.ac6.mcu.externaltools.arm-none.linux64_1.17.0.201812190825/tools/compiler/bin/../lib/gcc/arm-none-eabi/7.3.1/../../../../arm-none-eabi/lib/thumb/v7e-m/fpv4-sp/hard/libc_nano.a(lib_a-memcpy-stub.o)
                              Middlewares/Third_Party/FreeRTOS/Source/queue.o (memcpy)
/home/delusion/bin/Ac6_SystemWorkbench/plugins/fr.ac6.mcu.externaltools.arm-none.linux64_1.17.0.201812190825/tools/compiler/bin/../lib/gcc/arm-none-eabi/7.3.1/../../../../arm-none-eabi/lib/thumb/v7e-m/fpv4-sp/hard/libc_nano.a(lib_a-memset.o)
                              /home/delusion/bin/Ac6_SystemWorkbench/plugins/fr.ac6.mcu.externaltools.arm-none.linux64_1.17.0.201812190825/tools/compiler/bin/../lib/gcc/arm-none-eabi/7.3.1/../../../../arm-none-eabi/lib/thumb/v7e-m/fpv4-sp/hard/crt0.o (memset)
/home/delusion/bin/Ac6_SystemWorkbench/plugins/fr.ac6.mcu.externaltools.arm-none.linux64_1.17.0.201812190825/tools/compiler/bin/../lib/gcc/arm-none-eabi/7.3.1/../../../../arm-none-eabi/lib/thumb/v7e-m/fpv4-sp/hard/libc_nano.a(lib_a-sprintf.o)
                              Src/UART.o (sprintf)
/home/delusion/bin/Ac6_SystemWorkbench/plugins/fr.ac6.mcu.externaltools.arm-none.linux64_1.17.0.201812190825/tools/compiler/bin/../lib/gcc/arm-none-eabi/7.3.1/../../../../arm-none-eabi/lib/thumb/v7e-m/fpv4-sp/hard/libc_nano.a(lib_a-nano-svfprintf.o)
                              /home/delusion/bin/Ac6_SystemWorkbench/plugins/fr.ac6.mcu.externaltools.arm-none.linux64_1.17.0.201812190825/tools/compiler/bin/../lib/gcc/arm-none-eabi/7.3.1/../../../../arm-none-eabi/lib/thumb/v7e-m/fpv4-sp/hard/libc_nano.a(lib_a-sprintf.o) (_svfprintf_r)
/home/delusion/bin/Ac6_SystemWorkbench/plugins/fr.ac6.mcu.externaltools.arm-none.linux64_1.17.0.201812190825/tools/compiler/bin/../lib/gcc/arm-none-eabi/7.3.1/../../../../arm-none-eabi/lib/thumb/v7e-m/fpv4-sp/hard/libc_nano.a(lib_a-nano-vfprintf_i.o)
                              /home/delusion/bin/Ac6_SystemWorkbench/plugins/fr.ac6.mcu.externaltools.arm-none.linux64_1.17.0.201812190825/tools/compiler/bin/../lib/gcc/arm-none-eabi/7.3.1/../../../../arm-none-eabi/lib/thumb/v7e-m/fpv4-sp/hard/libc_nano.a(lib_a-nano-svfprintf.o) (_printf_i)
/home/delusion/bin/Ac6_SystemWorkbench/plugins/fr.ac6.mcu.externaltools.arm-none.linux64_1.17.0.201812190825/tools/compiler/bin/../lib/gcc/arm-none-eabi/7.3.1/../../../../arm-none-eabi/lib/thumb/v7e-m/fpv4-sp/hard/libc_nano.a(lib_a-memchr.o)
                              /home/delusion/bin/Ac6_SystemWorkbench/plugins/fr.ac6.mcu.externaltools.arm-none.linux64_1.17.0.201812190825/tools/compiler/bin/../lib/gcc/arm-none-eabi/7.3.1/../../../../arm-none-eabi/lib/thumb/v7e-m/fpv4-sp/hard/libc_nano.a(lib_a-nano-svfprintf.o) (memchr)
/home/delusion/bin/Ac6_SystemWorkbench/plugins/fr.ac6.mcu.externaltools.arm-none.linux64_1.17.0.201812190825/tools/compiler/bin/../lib/gcc/arm-none-eabi/7.3.1/../../../../arm-none-eabi/lib/thumb/v7e-m/fpv4-sp/hard/libc_nano.a(lib_a-memmove.o)
                              /home/delusion/bin/Ac6_SystemWorkbench/plugins/fr.ac6.mcu.externaltools.arm-none.linux64_1.17.0.201812190825/tools/compiler/bin/../lib/gcc/arm-none-eabi/7.3.1/../../../../arm-none-eabi/lib/thumb/v7e-m/fpv4-sp/hard/libc_nano.a(lib_a-nano-svfprintf.o) (memmove)
/home/delusion/bin/Ac6_SystemWorkbench/plugins/fr.ac6.mcu.externaltools.arm-none.linux64_1.17.0.201812190825/tools/compiler/bin/../lib/gcc/arm-none-eabi/7.3.1/../../../../arm-none-eabi/lib/thumb/v7e-m/fpv4-sp/hard/libc_nano.a(lib_a-nano-freer.o)
                              /home/delusion/bin/Ac6_SystemWorkbench/plugins/fr.ac6.mcu.externaltools.arm-none.linux64_1.17.0.201812190825/tools/compiler/bin/../lib/gcc/arm-none-eabi/7.3.1/../../../../arm-none-eabi/lib/thumb/v7e-m/fpv4-sp/hard/libc_nano.a(lib_a-nano-svfprintf.o) (_free_r)
/home/delusion/bin/Ac6_SystemWorkbench/plugins/fr.ac6.mcu.externaltools.arm-none.linux64_1.17.0.201812190825/tools/compiler/bin/../lib/gcc/arm-none-eabi/7.3.1/../../../../arm-none-eabi/lib/thumb/v7e-m/fpv4-sp/hard/libc_nano.a(lib_a-nano-mallocr.o)
                              /home/delusion/bin/Ac6_SystemWorkbench/plugins/fr.ac6.mcu.externaltools.arm-none.linux64_1.17.0.201812190825/tools/compiler/bin/../lib/gcc/arm-none-eabi/7.3.1/../../../../arm-none-eabi/lib/thumb/v7e-m/fpv4-sp/hard/libc_nano.a(lib_a-nano-svfprintf.o) (_malloc_r)
/home/delusion/bin/Ac6_SystemWorkbench/plugins/fr.ac6.mcu.externaltools.arm-none.linux64_1.17.0.201812190825/tools/compiler/bin/../lib/gcc/arm-none-eabi/7.3.1/../../../../arm-none-eabi/lib/thumb/v7e-m/fpv4-sp/hard/libc_nano.a(lib_a-nano-reallocr.o)
                              /home/delusion/bin/Ac6_SystemWorkbench/plugins/fr.ac6.mcu.externaltools.arm-none.linux64_1.17.0.201812190825/tools/compiler/bin/../lib/gcc/arm-none-eabi/7.3.1/../../../../arm-none-eabi/lib/thumb/v7e-m/fpv4-sp/hard/libc_nano.a(lib_a-nano-svfprintf.o) (_realloc_r)
/home/delusion/bin/Ac6_SystemWorkbench/plugins/fr.ac6.mcu.externaltools.arm-none.linux64_1.17.0.201812190825/tools/compiler/bin/../lib/gcc/arm-none-eabi/7.3.1/../../../../arm-none-eabi/lib/thumb/v7e-m/fpv4-sp/hard/libc_nano.a(lib_a-sbrkr.o)
                              /home/delusion/bin/Ac6_SystemWorkbench/plugins/fr.ac6.mcu.externaltools.arm-none.linux64_1.17.0.201812190825/tools/compiler/bin/../lib/gcc/arm-none-eabi/7.3.1/../../../../arm-none-eabi/lib/thumb/v7e-m/fpv4-sp/hard/libc_nano.a(lib_a-nano-mallocr.o) (_sbrk_r)
/home/delusion/bin/Ac6_SystemWorkbench/plugins/fr.ac6.mcu.externaltools.arm-none.linux64_1.17.0.201812190825/tools/compiler/bin/../lib/gcc/arm-none-eabi/7.3.1/../../../../arm-none-eabi/lib/thumb/v7e-m/fpv4-sp/hard/libc_nano.a(lib_a-mlock.o)
                              /home/delusion/bin/Ac6_SystemWorkbench/plugins/fr.ac6.mcu.externaltools.arm-none.linux64_1.17.0.201812190825/tools/compiler/bin/../lib/gcc/arm-none-eabi/7.3.1/../../../../arm-none-eabi/lib/thumb/v7e-m/fpv4-sp/hard/libc_nano.a(lib_a-nano-freer.o) (__malloc_lock)
/home/delusion/bin/Ac6_SystemWorkbench/plugins/fr.ac6.mcu.externaltools.arm-none.linux64_1.17.0.201812190825/tools/compiler/bin/../lib/gcc/arm-none-eabi/7.3.1/../../../../arm-none-eabi/lib/thumb/v7e-m/fpv4-sp/hard/libc_nano.a(lib_a-nano-msizer.o)
                              /home/delusion/bin/Ac6_SystemWorkbench/plugins/fr.ac6.mcu.externaltools.arm-none.linux64_1.17.0.201812190825/tools/compiler/bin/../lib/gcc/arm-none-eabi/7.3.1/../../../../arm-none-eabi/lib/thumb/v7e-m/fpv4-sp/hard/libc_nano.a(lib_a-nano-reallocr.o) (_malloc_usable_size_r)
/home/delusion/bin/Ac6_SystemWorkbench/plugins/fr.ac6.mcu.externaltools.arm-none.linux64_1.17.0.201812190825/tools/compiler/bin/../lib/gcc/arm-none-eabi/7.3.1/../../../../arm-none-eabi/lib/thumb/v7e-m/fpv4-sp/hard/libc_nano.a(lib_a-reent.o)
                              /home/delusion/bin/Ac6_SystemWorkbench/plugins/fr.ac6.mcu.externaltools.arm-none.linux64_1.17.0.201812190825/tools/compiler/bin/../lib/gcc/arm-none-eabi/7.3.1/../../../../arm-none-eabi/lib/thumb/v7e-m/fpv4-sp/hard/libc_nano.a(lib_a-sbrkr.o) (errno)
/home/delusion/bin/Ac6_SystemWorkbench/plugins/fr.ac6.mcu.externaltools.arm-none.linux64_1.17.0.201812190825/tools/compiler/bin/../lib/gcc/arm-none-eabi/7.3.1/../../../../arm-none-eabi/lib/thumb/v7e-m/fpv4-sp/hard/libnosys.a(sbrk.o)
                              /home/delusion/bin/Ac6_SystemWorkbench/plugins/fr.ac6.mcu.externaltools.arm-none.linux64_1.17.0.201812190825/tools/compiler/bin/../lib/gcc/arm-none-eabi/7.3.1/../../../../arm-none-eabi/lib/thumb/v7e-m/fpv4-sp/hard/libc_nano.a(lib_a-sbrkr.o) (_sbrk)
/home/delusion/bin/Ac6_SystemWorkbench/plugins/fr.ac6.mcu.externaltools.arm-none.linux64_1.17.0.201812190825/tools/compiler/bin/../lib/gcc/arm-none-eabi/7.3.1/../../../../arm-none-eabi/lib/thumb/v7e-m/fpv4-sp/hard/libnosys.a(_exit.o)
                              /home/delusion/bin/Ac6_SystemWorkbench/plugins/fr.ac6.mcu.externaltools.arm-none.linux64_1.17.0.201812190825/tools/compiler/bin/../lib/gcc/arm-none-eabi/7.3.1/../../../../arm-none-eabi/lib/thumb/v7e-m/fpv4-sp/hard/libc_nano.a(lib_a-exit.o) (_exit)

Allocating common symbols
Common symbol       size              file

defaultTaskHandle   0x4               Src/freertos.o
cdcCtlTaskHandle    0x4               Src/freertos.o
errno               0x4               /home/delusion/bin/Ac6_SystemWorkbench/plugins/fr.ac6.mcu.externaltools.arm-none.linux64_1.17.0.201812190825/tools/compiler/bin/../lib/gcc/arm-none-eabi/7.3.1/../../../../arm-none-eabi/lib/thumb/v7e-m/fpv4-sp/hard/libc_nano.a(lib_a-reent.o)
wheelBtnTaskHandle  0x4               Src/freertos.o
wheelBtnQueueResult
                    0x4               Src/freertos.o
hcan                0x28              Src/can.o
uwTick              0x4               Drivers/STM32F3xx_HAL_Driver/Src/stm32f3xx_hal.o
xQueueRegistry      0x40              Middlewares/Third_Party/FreeRTOS/Source/queue.o
pFlash              0x20              Drivers/STM32F3xx_HAL_Driver/Src/stm32f3xx_hal_flash.o
nStatQueueHandle    0x4               Src/freertos.o
nStatQueueResult    0x4               Src/freertos.o
debugLedTaskHandle  0x4               Src/freertos.o
cdcCtlQueueHandle   0x4               Src/freertos.o
TxData              0x8               Src/can.o
TxMailbox           0x4               Src/can.o
nodeStatTaskHandle  0x4               Src/freertos.o
wheelBtnQueueHandle
                    0x4               Src/freertos.o
RxData              0x8               Src/can.o
huart2              0x70              Src/usart.o
TxHeader            0x18              Src/can.o
RxHeader            0x1c              Src/can.o
htim16              0x40              Src/stm32f3xx_hal_timebase_TIM.o

Discarded input sections

 .text          0x0000000000000000        0x0 /home/delusion/bin/Ac6_SystemWorkbench/plugins/fr.ac6.mcu.externaltools.arm-none.linux64_1.17.0.201812190825/tools/compiler/bin/../lib/gcc/arm-none-eabi/7.3.1/thumb/v7e-m/fpv4-sp/hard/crti.o
 .data          0x0000000000000000        0x0 /home/delusion/bin/Ac6_SystemWorkbench/plugins/fr.ac6.mcu.externaltools.arm-none.linux64_1.17.0.201812190825/tools/compiler/bin/../lib/gcc/arm-none-eabi/7.3.1/thumb/v7e-m/fpv4-sp/hard/crti.o
 .bss           0x0000000000000000        0x0 /home/delusion/bin/Ac6_SystemWorkbench/plugins/fr.ac6.mcu.externaltools.arm-none.linux64_1.17.0.201812190825/tools/compiler/bin/../lib/gcc/arm-none-eabi/7.3.1/thumb/v7e-m/fpv4-sp/hard/crti.o
 .data          0x0000000000000000        0x4 /home/delusion/bin/Ac6_SystemWorkbench/plugins/fr.ac6.mcu.externaltools.arm-none.linux64_1.17.0.201812190825/tools/compiler/bin/../lib/gcc/arm-none-eabi/7.3.1/thumb/v7e-m/fpv4-sp/hard/crtbegin.o
 .text          0x0000000000000000       0x74 /home/delusion/bin/Ac6_SystemWorkbench/plugins/fr.ac6.mcu.externaltools.arm-none.linux64_1.17.0.201812190825/tools/compiler/bin/../lib/gcc/arm-none-eabi/7.3.1/../../../../arm-none-eabi/lib/thumb/v7e-m/fpv4-sp/hard/crt0.o
 .data          0x0000000000000000        0x0 /home/delusion/bin/Ac6_SystemWorkbench/plugins/fr.ac6.mcu.externaltools.arm-none.linux64_1.17.0.201812190825/tools/compiler/bin/../lib/gcc/arm-none-eabi/7.3.1/../../../../arm-none-eabi/lib/thumb/v7e-m/fpv4-sp/hard/crt0.o
 .bss           0x0000000000000000        0x0 /home/delusion/bin/Ac6_SystemWorkbench/plugins/fr.ac6.mcu.externaltools.arm-none.linux64_1.17.0.201812190825/tools/compiler/bin/../lib/gcc/arm-none-eabi/7.3.1/../../../../arm-none-eabi/lib/thumb/v7e-m/fpv4-sp/hard/crt0.o
 .ARM.extab     0x0000000000000000        0x0 /home/delusion/bin/Ac6_SystemWorkbench/plugins/fr.ac6.mcu.externaltools.arm-none.linux64_1.17.0.201812190825/tools/compiler/bin/../lib/gcc/arm-none-eabi/7.3.1/../../../../arm-none-eabi/lib/thumb/v7e-m/fpv4-sp/hard/crt0.o
 .ARM.exidx     0x0000000000000000        0x8 /home/delusion/bin/Ac6_SystemWorkbench/plugins/fr.ac6.mcu.externaltools.arm-none.linux64_1.17.0.201812190825/tools/compiler/bin/../lib/gcc/arm-none-eabi/7.3.1/../../../../arm-none-eabi/lib/thumb/v7e-m/fpv4-sp/hard/crt0.o
 .ARM.attributes
                0x0000000000000000       0x20 /home/delusion/bin/Ac6_SystemWorkbench/plugins/fr.ac6.mcu.externaltools.arm-none.linux64_1.17.0.201812190825/tools/compiler/bin/../lib/gcc/arm-none-eabi/7.3.1/../../../../arm-none-eabi/lib/thumb/v7e-m/fpv4-sp/hard/crt0.o
 .group         0x0000000000000000        0xc Drivers/STM32F3xx_HAL_Driver/Src/stm32f3xx_hal.o
 .group         0x0000000000000000        0xc Drivers/STM32F3xx_HAL_Driver/Src/stm32f3xx_hal.o
 .group         0x0000000000000000        0xc Drivers/STM32F3xx_HAL_Driver/Src/stm32f3xx_hal.o
 .group         0x0000000000000000        0xc Drivers/STM32F3xx_HAL_Driver/Src/stm32f3xx_hal.o
 .group         0x0000000000000000        0xc Drivers/STM32F3xx_HAL_Driver/Src/stm32f3xx_hal.o
 .group         0x0000000000000000        0xc Drivers/STM32F3xx_HAL_Driver/Src/stm32f3xx_hal.o
 .group         0x0000000000000000        0xc Drivers/STM32F3xx_HAL_Driver/Src/stm32f3xx_hal.o
Memory Configuration

Name             Origin             Length             Attributes
RAM              0x0000000020000000 0x0000000000003000 xrw
CCMRAM           0x0000000010000000 0x0000000000001000 rw
FLASH            0x0000000008000000 0x0000000000008000 xr
*default*        0x0000000000000000 0xffffffffffffffff

Linker script and memory map

LOAD /home/delusion/bin/Ac6_SystemWorkbench/plugins/fr.ac6.mcu.externaltools.arm-none.linux64_1.17.0.201812190825/tools/compiler/bin/../lib/gcc/arm-none-eabi/7.3.1/thumb/v7e-m/fpv4-sp/hard/crti.o
LOAD /home/delusion/bin/Ac6_SystemWorkbench/plugins/fr.ac6.mcu.externaltools.arm-none.linux64_1.17.0.201812190825/tools/compiler/bin/../lib/gcc/arm-none-eabi/7.3.1/thumb/v7e-m/fpv4-sp/hard/crtbegin.o
LOAD /home/delusion/bin/Ac6_SystemWorkbench/plugins/fr.ac6.mcu.externaltools.arm-none.linux64_1.17.0.201812190825/tools/compiler/bin/../lib/gcc/arm-none-eabi/7.3.1/../../../../arm-none-eabi/lib/thumb/v7e-m/fpv4-sp/hard/crt0.o
LOAD Drivers/STM32F3xx_HAL_Driver/Src/stm32f3xx_hal.o
LOAD Drivers/STM32F3xx_HAL_Driver/Src/stm32f3xx_hal_can.o
LOAD Drivers/STM32F3xx_HAL_Driver/Src/stm32f3xx_hal_cortex.o
LOAD Drivers/STM32F3xx_HAL_Driver/Src/stm32f3xx_hal_dma.o
LOAD Drivers/STM32F3xx_HAL_Driver/Src/stm32f3xx_hal_flash.o
LOAD Drivers/STM32F3xx_HAL_Driver/Src/stm32f3xx_hal_flash_ex.o
LOAD Drivers/STM32F3xx_HAL_Driver/Src/stm32f3xx_hal_gpio.o
LOAD Drivers/STM32F3xx_HAL_Driver/Src/stm32f3xx_hal_i2c.o
LOAD Drivers/STM32F3xx_HAL_Driver/Src/stm32f3xx_hal_i2c_ex.o
LOAD Drivers/STM32F3xx_HAL_Driver/Src/stm32f3xx_hal_pwr.o
LOAD Drivers/STM32F3xx_HAL_Driver/Src/stm32f3xx_hal_pwr_ex.o
LOAD Drivers/STM32F3xx_HAL_Driver/Src/stm32f3xx_hal_rcc.o
LOAD Drivers/STM32F3xx_HAL_Driver/Src/stm32f3xx_hal_rcc_ex.o
LOAD Drivers/STM32F3xx_HAL_Driver/Src/stm32f3xx_hal_tim.o
LOAD Drivers/STM32F3xx_HAL_Driver/Src/stm32f3xx_hal_tim_ex.o
LOAD Drivers/STM32F3xx_HAL_Driver/Src/stm32f3xx_hal_uart.o
LOAD Drivers/STM32F3xx_HAL_Driver/Src/stm32f3xx_hal_uart_ex.o
LOAD Middlewares/Third_Party/FreeRTOS/Source/CMSIS_RTOS/cmsis_os.o
LOAD Middlewares/Third_Party/FreeRTOS/Source/croutine.o
LOAD Middlewares/Third_Party/FreeRTOS/Source/event_groups.o
LOAD Middlewares/Third_Party/FreeRTOS/Source/list.o
LOAD Middlewares/Third_Party/FreeRTOS/Source/queue.o
LOAD Middlewares/Third_Party/FreeRTOS/Source/tasks.o
LOAD Middlewares/Third_Party/FreeRTOS/Source/timers.o
LOAD Middlewares/Third_Party/FreeRTOS/Source/portable/GCC/ARM_CM4F/port.o
LOAD Middlewares/Third_Party/FreeRTOS/Source/portable/MemMang/heap_4.o
LOAD Src/UART.o
LOAD Src/can.o
LOAD Src/csr.o
LOAD Src/freertos.o
LOAD Src/gpio.o
LOAD Src/led_task.o
LOAD Src/main.o
LOAD Src/stm32f3xx_hal_msp.o
LOAD Src/stm32f3xx_hal_timebase_TIM.o
LOAD Src/stm32f3xx_it.o
LOAD Src/system_stm32f3xx.o
LOAD Src/usart.o
LOAD startup/startup_stm32f303x8.o
LOAD /home/delusion/bin/Ac6_SystemWorkbench/plugins/fr.ac6.mcu.externaltools.arm-none.linux64_1.17.0.201812190825/tools/compiler/bin/../lib/gcc/arm-none-eabi/7.3.1/../../../../arm-none-eabi/lib/thumb/v7e-m/fpv4-sp/hard/libm.a
START GROUP
LOAD /home/delusion/bin/Ac6_SystemWorkbench/plugins/fr.ac6.mcu.externaltools.arm-none.linux64_1.17.0.201812190825/tools/compiler/bin/../lib/gcc/arm-none-eabi/7.3.1/thumb/v7e-m/fpv4-sp/hard/libgcc.a
LOAD /home/delusion/bin/Ac6_SystemWorkbench/plugins/fr.ac6.mcu.externaltools.arm-none.linux64_1.17.0.201812190825/tools/compiler/bin/../lib/gcc/arm-none-eabi/7.3.1/../../../../arm-none-eabi/lib/thumb/v7e-m/fpv4-sp/hard/libc_nano.a
END GROUP
START GROUP
LOAD /home/delusion/bin/Ac6_SystemWorkbench/plugins/fr.ac6.mcu.externaltools.arm-none.linux64_1.17.0.201812190825/tools/compiler/bin/../lib/gcc/arm-none-eabi/7.3.1/thumb/v7e-m/fpv4-sp/hard/libgcc.a
LOAD /home/delusion/bin/Ac6_SystemWorkbench/plugins/fr.ac6.mcu.externaltools.arm-none.linux64_1.17.0.201812190825/tools/compiler/bin/../lib/gcc/arm-none-eabi/7.3.1/../../../../arm-none-eabi/lib/thumb/v7e-m/fpv4-sp/hard/libc_nano.a
LOAD /home/delusion/bin/Ac6_SystemWorkbench/plugins/fr.ac6.mcu.externaltools.arm-none.linux64_1.17.0.201812190825/tools/compiler/bin/../lib/gcc/arm-none-eabi/7.3.1/../../../../arm-none-eabi/lib/thumb/v7e-m/fpv4-sp/hard/libnosys.a
END GROUP
START GROUP
LOAD /home/delusion/bin/Ac6_SystemWorkbench/plugins/fr.ac6.mcu.externaltools.arm-none.linux64_1.17.0.201812190825/tools/compiler/bin/../lib/gcc/arm-none-eabi/7.3.1/thumb/v7e-m/fpv4-sp/hard/libgcc.a
LOAD /home/delusion/bin/Ac6_SystemWorkbench/plugins/fr.ac6.mcu.externaltools.arm-none.linux64_1.17.0.201812190825/tools/compiler/bin/../lib/gcc/arm-none-eabi/7.3.1/../../../../arm-none-eabi/lib/thumb/v7e-m/fpv4-sp/hard/libc_nano.a
LOAD /home/delusion/bin/Ac6_SystemWorkbench/plugins/fr.ac6.mcu.externaltools.arm-none.linux64_1.17.0.201812190825/tools/compiler/bin/../lib/gcc/arm-none-eabi/7.3.1/../../../../arm-none-eabi/lib/thumb/v7e-m/fpv4-sp/hard/libnosys.a
END GROUP
LOAD /home/delusion/bin/Ac6_SystemWorkbench/plugins/fr.ac6.mcu.externaltools.arm-none.linux64_1.17.0.201812190825/tools/compiler/bin/../lib/gcc/arm-none-eabi/7.3.1/thumb/v7e-m/fpv4-sp/hard/crtend.o
LOAD /home/delusion/bin/Ac6_SystemWorkbench/plugins/fr.ac6.mcu.externaltools.arm-none.linux64_1.17.0.201812190825/tools/compiler/bin/../lib/gcc/arm-none-eabi/7.3.1/thumb/v7e-m/fpv4-sp/hard/crtn.o
                0x0000000020003000                _estack = 0x20003000
                0x0000000000000200                _Min_Heap_Size = 0x200
                0x0000000000000400                _Min_Stack_Size = 0x400

.isr_vector     0x0000000008000000      0x188
                0x0000000008000000                . = ALIGN (0x4)
 *(.isr_vector)
 .isr_vector    0x0000000008000000      0x188 startup/startup_stm32f303x8.o
                0x0000000008000000                g_pfnVectors
                0x0000000008000188                . = ALIGN (0x4)

.text           0x0000000008000190     0x3c58
                0x0000000008000190                . = ALIGN (0x4)
 *(.text)
 .text          0x0000000008000190       0x40 /home/delusion/bin/Ac6_SystemWorkbench/plugins/fr.ac6.mcu.externaltools.arm-none.linux64_1.17.0.201812190825/tools/compiler/bin/../lib/gcc/arm-none-eabi/7.3.1/thumb/v7e-m/fpv4-sp/hard/crtbegin.o
 *(.text*)
 .text.HAL_Init
                0x00000000080001d0       0x24 Drivers/STM32F3xx_HAL_Driver/Src/stm32f3xx_hal.o
                0x00000000080001d0                HAL_Init
 .text.HAL_IncTick
                0x00000000080001f4       0x18 Drivers/STM32F3xx_HAL_Driver/Src/stm32f3xx_hal.o
                0x00000000080001f4                HAL_IncTick
 .text.HAL_GetTick
                0x000000000800020c        0xc Drivers/STM32F3xx_HAL_Driver/Src/stm32f3xx_hal.o
                0x000000000800020c                HAL_GetTick
 .text.HAL_CAN_Init
                0x0000000008000218      0x14c Drivers/STM32F3xx_HAL_Driver/Src/stm32f3xx_hal_can.o
                0x0000000008000218                HAL_CAN_Init
 .text.HAL_CAN_ConfigFilter
                0x0000000008000364       0xfc Drivers/STM32F3xx_HAL_Driver/Src/stm32f3xx_hal_can.o
                0x0000000008000364                HAL_CAN_ConfigFilter
 .text.HAL_CAN_Start
                0x0000000008000460       0x5c Drivers/STM32F3xx_HAL_Driver/Src/stm32f3xx_hal_can.o
                0x0000000008000460                HAL_CAN_Start
 .text.HAL_CAN_AddTxMessage
                0x00000000080004bc       0xea Drivers/STM32F3xx_HAL_Driver/Src/stm32f3xx_hal_can.o
                0x00000000080004bc                HAL_CAN_AddTxMessage
 .text.HAL_CAN_GetRxMessage
                0x00000000080005a6      0x134 Drivers/STM32F3xx_HAL_Driver/Src/stm32f3xx_hal_can.o
                0x00000000080005a6                HAL_CAN_GetRxMessage
 .text.HAL_CAN_ActivateNotification
                0x00000000080006da       0x24 Drivers/STM32F3xx_HAL_Driver/Src/stm32f3xx_hal_can.o
                0x00000000080006da                HAL_CAN_ActivateNotification
 .text.HAL_CAN_TxMailbox0CompleteCallback
                0x00000000080006fe        0x2 Drivers/STM32F3xx_HAL_Driver/Src/stm32f3xx_hal_can.o
                0x00000000080006fe                HAL_CAN_TxMailbox0CompleteCallback
 .text.HAL_CAN_TxMailbox1CompleteCallback
                0x0000000008000700        0x2 Drivers/STM32F3xx_HAL_Driver/Src/stm32f3xx_hal_can.o
                0x0000000008000700                HAL_CAN_TxMailbox1CompleteCallback
 .text.HAL_CAN_TxMailbox2CompleteCallback
                0x0000000008000702        0x2 Drivers/STM32F3xx_HAL_Driver/Src/stm32f3xx_hal_can.o
                0x0000000008000702                HAL_CAN_TxMailbox2CompleteCallback
 .text.HAL_CAN_TxMailbox0AbortCallback
                0x0000000008000704        0x2 Drivers/STM32F3xx_HAL_Driver/Src/stm32f3xx_hal_can.o
                0x0000000008000704                HAL_CAN_TxMailbox0AbortCallback
 .text.HAL_CAN_TxMailbox1AbortCallback
                0x0000000008000706        0x2 Drivers/STM32F3xx_HAL_Driver/Src/stm32f3xx_hal_can.o
                0x0000000008000706                HAL_CAN_TxMailbox1AbortCallback
 .text.HAL_CAN_TxMailbox2AbortCallback
                0x0000000008000708        0x2 Drivers/STM32F3xx_HAL_Driver/Src/stm32f3xx_hal_can.o
                0x0000000008000708                HAL_CAN_TxMailbox2AbortCallback
 .text.HAL_CAN_RxFifo0FullCallback
                0x000000000800070a        0x2 Drivers/STM32F3xx_HAL_Driver/Src/stm32f3xx_hal_can.o
                0x000000000800070a                HAL_CAN_RxFifo0FullCallback
 .text.HAL_CAN_RxFifo1MsgPendingCallback
                0x000000000800070c        0x2 Drivers/STM32F3xx_HAL_Driver/Src/stm32f3xx_hal_can.o
                0x000000000800070c                HAL_CAN_RxFifo1MsgPendingCallback
 .text.HAL_CAN_RxFifo1FullCallback
                0x000000000800070e        0x2 Drivers/STM32F3xx_HAL_Driver/Src/stm32f3xx_hal_can.o
                0x000000000800070e                HAL_CAN_RxFifo1FullCallback
 .text.HAL_CAN_SleepCallback
                0x0000000008000710        0x2 Drivers/STM32F3xx_HAL_Driver/Src/stm32f3xx_hal_can.o
                0x0000000008000710                HAL_CAN_SleepCallback
 .text.HAL_CAN_WakeUpFromRxMsgCallback
                0x0000000008000712        0x2 Drivers/STM32F3xx_HAL_Driver/Src/stm32f3xx_hal_can.o
                0x0000000008000712                HAL_CAN_WakeUpFromRxMsgCallback
 .text.HAL_CAN_ErrorCallback
                0x0000000008000714        0x2 Drivers/STM32F3xx_HAL_Driver/Src/stm32f3xx_hal_can.o
                0x0000000008000714                HAL_CAN_ErrorCallback
 .text.HAL_CAN_IRQHandler
                0x0000000008000716      0x258 Drivers/STM32F3xx_HAL_Driver/Src/stm32f3xx_hal_can.o
                0x0000000008000716                HAL_CAN_IRQHandler
 *fill*         0x000000000800096e        0x2 
 .text.HAL_NVIC_SetPriorityGrouping
                0x0000000008000970       0x24 Drivers/STM32F3xx_HAL_Driver/Src/stm32f3xx_hal_cortex.o
                0x0000000008000970                HAL_NVIC_SetPriorityGrouping
 .text.HAL_NVIC_SetPriority
                0x0000000008000994       0x68 Drivers/STM32F3xx_HAL_Driver/Src/stm32f3xx_hal_cortex.o
                0x0000000008000994                HAL_NVIC_SetPriority
 .text.HAL_NVIC_EnableIRQ
                0x00000000080009fc       0x18 Drivers/STM32F3xx_HAL_Driver/Src/stm32f3xx_hal_cortex.o
                0x00000000080009fc                HAL_NVIC_EnableIRQ
 .text.HAL_SYSTICK_Config
                0x0000000008000a14       0x2c Drivers/STM32F3xx_HAL_Driver/Src/stm32f3xx_hal_cortex.o
                0x0000000008000a14                HAL_SYSTICK_Config
 .text.HAL_SYSTICK_CLKSourceConfig
                0x0000000008000a40       0x20 Drivers/STM32F3xx_HAL_Driver/Src/stm32f3xx_hal_cortex.o
                0x0000000008000a40                HAL_SYSTICK_CLKSourceConfig
 .text.HAL_GPIO_Init
                0x0000000008000a60      0x188 Drivers/STM32F3xx_HAL_Driver/Src/stm32f3xx_hal_gpio.o
                0x0000000008000a60                HAL_GPIO_Init
 .text.HAL_GPIO_WritePin
                0x0000000008000be8        0xa Drivers/STM32F3xx_HAL_Driver/Src/stm32f3xx_hal_gpio.o
                0x0000000008000be8                HAL_GPIO_WritePin
 .text.HAL_GPIO_TogglePin
                0x0000000008000bf2        0x8 Drivers/STM32F3xx_HAL_Driver/Src/stm32f3xx_hal_gpio.o
                0x0000000008000bf2                HAL_GPIO_TogglePin
 *fill*         0x0000000008000bfa        0x2 
 .text.HAL_RCC_OscConfig
                0x0000000008000bfc      0x618 Drivers/STM32F3xx_HAL_Driver/Src/stm32f3xx_hal_rcc.o
                0x0000000008000bfc                HAL_RCC_OscConfig
 .text.HAL_RCC_EnableCSS
                0x0000000008001214       0x1c Drivers/STM32F3xx_HAL_Driver/Src/stm32f3xx_hal_rcc.o
                0x0000000008001214                HAL_RCC_EnableCSS
 .text.HAL_RCC_GetSysClockFreq
                0x0000000008001230       0x70 Drivers/STM32F3xx_HAL_Driver/Src/stm32f3xx_hal_rcc.o
                0x0000000008001230                HAL_RCC_GetSysClockFreq
 .text.HAL_RCC_ClockConfig
                0x00000000080012a0      0x1a0 Drivers/STM32F3xx_HAL_Driver/Src/stm32f3xx_hal_rcc.o
                0x00000000080012a0                HAL_RCC_ClockConfig
 .text.HAL_RCC_GetHCLKFreq
                0x0000000008001440        0xc Drivers/STM32F3xx_HAL_Driver/Src/stm32f3xx_hal_rcc.o
                0x0000000008001440                HAL_RCC_GetHCLKFreq
 .text.HAL_RCC_GetPCLK1Freq
                0x000000000800144c       0x2c Drivers/STM32F3xx_HAL_Driver/Src/stm32f3xx_hal_rcc.o
                0x000000000800144c                HAL_RCC_GetPCLK1Freq
 .text.HAL_RCC_GetPCLK2Freq
                0x0000000008001478       0x2c Drivers/STM32F3xx_HAL_Driver/Src/stm32f3xx_hal_rcc.o
                0x0000000008001478                HAL_RCC_GetPCLK2Freq
 .text.HAL_RCC_GetClockConfig
                0x00000000080014a4       0x3c Drivers/STM32F3xx_HAL_Driver/Src/stm32f3xx_hal_rcc.o
                0x00000000080014a4                HAL_RCC_GetClockConfig
 .text.HAL_RCC_CSSCallback
                0x00000000080014e0        0x2 Drivers/STM32F3xx_HAL_Driver/Src/stm32f3xx_hal_rcc.o
                0x00000000080014e0                HAL_RCC_CSSCallback
 *fill*         0x00000000080014e2        0x2 
 .text.HAL_RCC_NMI_IRQHandler
                0x00000000080014e4       0x24 Drivers/STM32F3xx_HAL_Driver/Src/stm32f3xx_hal_rcc.o
                0x00000000080014e4                HAL_RCC_NMI_IRQHandler
 .text.HAL_TIM_Base_MspInit
                0x0000000008001508        0x2 Drivers/STM32F3xx_HAL_Driver/Src/stm32f3xx_hal_tim.o
                0x0000000008001508                HAL_TIM_Base_MspInit
 .text.HAL_TIM_Base_Start_IT
                0x000000000800150a       0x18 Drivers/STM32F3xx_HAL_Driver/Src/stm32f3xx_hal_tim.o
                0x000000000800150a                HAL_TIM_Base_Start_IT
 .text.HAL_TIM_OC_DelayElapsedCallback
                0x0000000008001522        0x2 Drivers/STM32F3xx_HAL_Driver/Src/stm32f3xx_hal_tim.o
                0x0000000008001522                HAL_TIM_OC_DelayElapsedCallback
 .text.HAL_TIM_IC_CaptureCallback
                0x0000000008001524        0x2 Drivers/STM32F3xx_HAL_Driver/Src/stm32f3xx_hal_tim.o
                0x0000000008001524                HAL_TIM_IC_CaptureCallback
 .text.HAL_TIM_PWM_PulseFinishedCallback
                0x0000000008001526        0x2 Drivers/STM32F3xx_HAL_Driver/Src/stm32f3xx_hal_tim.o
                0x0000000008001526                HAL_TIM_PWM_PulseFinishedCallback
 .text.HAL_TIM_TriggerCallback
                0x0000000008001528        0x2 Drivers/STM32F3xx_HAL_Driver/Src/stm32f3xx_hal_tim.o
                0x0000000008001528                HAL_TIM_TriggerCallback
 .text.HAL_TIM_IRQHandler
                0x000000000800152a      0x19a Drivers/STM32F3xx_HAL_Driver/Src/stm32f3xx_hal_tim.o
                0x000000000800152a                HAL_TIM_IRQHandler
 .text.TIM_Base_SetConfig
                0x00000000080016c4       0x90 Drivers/STM32F3xx_HAL_Driver/Src/stm32f3xx_hal_tim.o
                0x00000000080016c4                TIM_Base_SetConfig
 .text.HAL_TIM_Base_Init
                0x0000000008001754       0x32 Drivers/STM32F3xx_HAL_Driver/Src/stm32f3xx_hal_tim.o
                0x0000000008001754                HAL_TIM_Base_Init
 .text.HAL_TIMEx_CommutationCallback
                0x0000000008001786        0x2 Drivers/STM32F3xx_HAL_Driver/Src/stm32f3xx_hal_tim_ex.o
                0x0000000008001786                HAL_TIMEx_CommutationCallback
 .text.HAL_TIMEx_BreakCallback
                0x0000000008001788        0x2 Drivers/STM32F3xx_HAL_Driver/Src/stm32f3xx_hal_tim_ex.o
                0x0000000008001788                HAL_TIMEx_BreakCallback
 .text.HAL_TIMEx_Break2Callback
                0x000000000800178a        0x2 Drivers/STM32F3xx_HAL_Driver/Src/stm32f3xx_hal_tim_ex.o
                0x000000000800178a                HAL_TIMEx_Break2Callback
 .text.UART_SetConfig
                0x000000000800178c      0x1b8 Drivers/STM32F3xx_HAL_Driver/Src/stm32f3xx_hal_uart.o
                0x000000000800178c                UART_SetConfig
 .text.UART_AdvFeatureConfig
                0x0000000008001944       0xca Drivers/STM32F3xx_HAL_Driver/Src/stm32f3xx_hal_uart.o
                0x0000000008001944                UART_AdvFeatureConfig
 .text.UART_WaitOnFlagUntilTimeout
                0x0000000008001a0e       0x62 Drivers/STM32F3xx_HAL_Driver/Src/stm32f3xx_hal_uart.o
                0x0000000008001a0e                UART_WaitOnFlagUntilTimeout
 .text.UART_CheckIdleState
                0x0000000008001a70       0x70 Drivers/STM32F3xx_HAL_Driver/Src/stm32f3xx_hal_uart.o
                0x0000000008001a70                UART_CheckIdleState
 .text.HAL_UART_Init
                0x0000000008001ae0       0x66 Drivers/STM32F3xx_HAL_Driver/Src/stm32f3xx_hal_uart.o
                0x0000000008001ae0                HAL_UART_Init
 .text.makeFreeRtosPriority
                0x0000000008001b46        0xc Middlewares/Third_Party/FreeRTOS/Source/CMSIS_RTOS/cmsis_os.o
 .text.inHandlerMode
                0x0000000008001b52        0xc Middlewares/Third_Party/FreeRTOS/Source/CMSIS_RTOS/cmsis_os.o
 .text.osKernelStart
                0x0000000008001b5e        0xa Middlewares/Third_Party/FreeRTOS/Source/CMSIS_RTOS/cmsis_os.o
                0x0000000008001b5e                osKernelStart
 .text.osKernelSysTick
                0x0000000008001b68       0x14 Middlewares/Third_Party/FreeRTOS/Source/CMSIS_RTOS/cmsis_os.o
                0x0000000008001b68                osKernelSysTick
 .text.osThreadCreate
                0x0000000008001b7c       0x34 Middlewares/Third_Party/FreeRTOS/Source/CMSIS_RTOS/cmsis_os.o
                0x0000000008001b7c                osThreadCreate
 .text.osDelay  0x0000000008001bb0       0x12 Middlewares/Third_Party/FreeRTOS/Source/CMSIS_RTOS/cmsis_os.o
                0x0000000008001bb0                osDelay
 .text.osSystickHandler
                0x0000000008001bc2       0x10 Middlewares/Third_Party/FreeRTOS/Source/CMSIS_RTOS/cmsis_os.o
                0x0000000008001bc2                osSystickHandler
 .text.osThreadSuspend
                0x0000000008001bd2        0xa Middlewares/Third_Party/FreeRTOS/Source/CMSIS_RTOS/cmsis_os.o
                0x0000000008001bd2                osThreadSuspend
 .text.osThreadResume
                0x0000000008001bdc       0x34 Middlewares/Third_Party/FreeRTOS/Source/CMSIS_RTOS/cmsis_os.o
                0x0000000008001bdc                osThreadResume
 .text.vListInitialise
                0x0000000008001c10       0x16 Middlewares/Third_Party/FreeRTOS/Source/list.o
                0x0000000008001c10                vListInitialise
 .text.vListInitialiseItem
                0x0000000008001c26        0x6 Middlewares/Third_Party/FreeRTOS/Source/list.o
                0x0000000008001c26                vListInitialiseItem
 .text.vListInsertEnd
                0x0000000008001c2c       0x18 Middlewares/Third_Party/FreeRTOS/Source/list.o
                0x0000000008001c2c                vListInsertEnd
 .text.vListInsert
                0x0000000008001c44       0x34 Middlewares/Third_Party/FreeRTOS/Source/list.o
                0x0000000008001c44                vListInsert
 .text.uxListRemove
                0x0000000008001c78       0x26 Middlewares/Third_Party/FreeRTOS/Source/list.o
                0x0000000008001c78                uxListRemove
 .text.prvIsQueueEmpty
                0x0000000008001c9e       0x1a Middlewares/Third_Party/FreeRTOS/Source/queue.o
 .text.prvCopyDataToQueue
                0x0000000008001cb8       0x76 Middlewares/Third_Party/FreeRTOS/Source/queue.o
 .text.prvCopyDataFromQueue
                0x0000000008001d2e       0x24 Middlewares/Third_Party/FreeRTOS/Source/queue.o
 .text.prvUnlockQueue
                0x0000000008001d52       0x6e Middlewares/Third_Party/FreeRTOS/Source/queue.o
 .text.xQueueGenericReset
                0x0000000008001dc0       0x84 Middlewares/Third_Party/FreeRTOS/Source/queue.o
                0x0000000008001dc0                xQueueGenericReset
 .text.prvInitialiseNewQueue
                0x0000000008001e44       0x1c Middlewares/Third_Party/FreeRTOS/Source/queue.o
 .text.xQueueGenericCreate
                0x0000000008001e60       0x48 Middlewares/Third_Party/FreeRTOS/Source/queue.o
                0x0000000008001e60                xQueueGenericCreate
 .text.xQueueGenericSendFromISR
                0x0000000008001ea8       0xcc Middlewares/Third_Party/FreeRTOS/Source/queue.o
                0x0000000008001ea8                xQueueGenericSendFromISR
 .text.xQueueGenericReceive
                0x0000000008001f74      0x1a4 Middlewares/Third_Party/FreeRTOS/Source/queue.o
                0x0000000008001f74                xQueueGenericReceive
 .text.prvTaskIsTaskSuspended
                0x0000000008002118       0x3c Middlewares/Third_Party/FreeRTOS/Source/tasks.o
 .text.prvResetNextTaskUnblockTime
                0x0000000008002154       0x24 Middlewares/Third_Party/FreeRTOS/Source/tasks.o
 .text.prvDeleteTCB
                0x0000000008002178       0x12 Middlewares/Third_Party/FreeRTOS/Source/tasks.o
 .text.prvInitialiseNewTask
                0x000000000800218a       0x80 Middlewares/Third_Party/FreeRTOS/Source/tasks.o
 *fill*         0x000000000800220a        0x2 
 .text.prvInitialiseTaskLists
                0x000000000800220c       0x58 Middlewares/Third_Party/FreeRTOS/Source/tasks.o
 .text.prvAddNewTaskToReadyList
                0x0000000008002264       0xac Middlewares/Third_Party/FreeRTOS/Source/tasks.o
 .text.prvAddCurrentTaskToDelayedList
                0x0000000008002310       0x88 Middlewares/Third_Party/FreeRTOS/Source/tasks.o
 .text.xTaskCreate
                0x0000000008002398       0x62 Middlewares/Third_Party/FreeRTOS/Source/tasks.o
                0x0000000008002398                xTaskCreate
 *fill*         0x00000000080023fa        0x2 
 .text.vTaskResume
                0x00000000080023fc       0x84 Middlewares/Third_Party/FreeRTOS/Source/tasks.o
                0x00000000080023fc                vTaskResume
 .text.xTaskResumeFromISR
                0x0000000008002480       0xa0 Middlewares/Third_Party/FreeRTOS/Source/tasks.o
                0x0000000008002480                xTaskResumeFromISR
 .text.vTaskStartScheduler
                0x0000000008002520       0x74 Middlewares/Third_Party/FreeRTOS/Source/tasks.o
                0x0000000008002520                vTaskStartScheduler
 .text.vTaskSuspendAll
                0x0000000008002594       0x14 Middlewares/Third_Party/FreeRTOS/Source/tasks.o
                0x0000000008002594                vTaskSuspendAll
 .text.xTaskGetTickCount
                0x00000000080025a8        0xc Middlewares/Third_Party/FreeRTOS/Source/tasks.o
                0x00000000080025a8                xTaskGetTickCount
 .text.xTaskGetTickCountFromISR
                0x00000000080025b4       0x14 Middlewares/Third_Party/FreeRTOS/Source/tasks.o
                0x00000000080025b4                xTaskGetTickCountFromISR
 .text.xTaskIncrementTick
                0x00000000080025c8      0x10c Middlewares/Third_Party/FreeRTOS/Source/tasks.o
                0x00000000080025c8                xTaskIncrementTick
 .text.xTaskResumeAll
                0x00000000080026d4       0xf0 Middlewares/Third_Party/FreeRTOS/Source/tasks.o
                0x00000000080026d4                xTaskResumeAll
 .text.vTaskDelay
                0x00000000080027c4       0x4c Middlewares/Third_Party/FreeRTOS/Source/tasks.o
                0x00000000080027c4                vTaskDelay
 .text.prvCheckTasksWaitingTermination
                0x0000000008002810       0x54 Middlewares/Third_Party/FreeRTOS/Source/tasks.o
 .text.prvIdleTask
                0x0000000008002864       0x28 Middlewares/Third_Party/FreeRTOS/Source/tasks.o
 .text.vTaskSwitchContext
                0x000000000800288c       0x90 Middlewares/Third_Party/FreeRTOS/Source/tasks.o
                0x000000000800288c                vTaskSwitchContext
 .text.vTaskSuspend
                0x000000000800291c       0xd4 Middlewares/Third_Party/FreeRTOS/Source/tasks.o
                0x000000000800291c                vTaskSuspend
 .text.vTaskPlaceOnEventList
                0x00000000080029f0       0x34 Middlewares/Third_Party/FreeRTOS/Source/tasks.o
                0x00000000080029f0                vTaskPlaceOnEventList
 .text.xTaskRemoveFromEventList
                0x0000000008002a24       0x84 Middlewares/Third_Party/FreeRTOS/Source/tasks.o
                0x0000000008002a24                xTaskRemoveFromEventList
 .text.vTaskSetTimeOutState
                0x0000000008002aa8       0x28 Middlewares/Third_Party/FreeRTOS/Source/tasks.o
                0x0000000008002aa8                vTaskSetTimeOutState
 .text.xTaskCheckForTimeOut
                0x0000000008002ad0       0x80 Middlewares/Third_Party/FreeRTOS/Source/tasks.o
                0x0000000008002ad0                xTaskCheckForTimeOut
 .text.vTaskMissedYield
                0x0000000008002b50       0x10 Middlewares/Third_Party/FreeRTOS/Source/tasks.o
                0x0000000008002b50                vTaskMissedYield
 .text.xTaskGetSchedulerState
                0x0000000008002b60       0x20 Middlewares/Third_Party/FreeRTOS/Source/tasks.o
                0x0000000008002b60                xTaskGetSchedulerState
 .text.vTaskPriorityInherit
                0x0000000008002b80       0xac Middlewares/Third_Party/FreeRTOS/Source/tasks.o
                0x0000000008002b80                vTaskPriorityInherit
 .text.xTaskPriorityDisinherit
                0x0000000008002c2c       0xb0 Middlewares/Third_Party/FreeRTOS/Source/tasks.o
                0x0000000008002c2c                xTaskPriorityDisinherit
 .text.pvTaskIncrementMutexHeldCount
                0x0000000008002cdc       0x20 Middlewares/Third_Party/FreeRTOS/Source/tasks.o
                0x0000000008002cdc                pvTaskIncrementMutexHeldCount
 .text.prvTaskExitError
                0x0000000008002cfc       0x34 Middlewares/Third_Party/FreeRTOS/Source/portable/GCC/ARM_CM4F/port.o
 .text.prvPortStartFirstTask
                0x0000000008002d30       0x20 Middlewares/Third_Party/FreeRTOS/Source/portable/GCC/ARM_CM4F/port.o
 .text.vPortEnableVFP
                0x0000000008002d50       0x14 Middlewares/Third_Party/FreeRTOS/Source/portable/GCC/ARM_CM4F/port.o
 .text.pxPortInitialiseStack
                0x0000000008002d64       0x2c Middlewares/Third_Party/FreeRTOS/Source/portable/GCC/ARM_CM4F/port.o
                0x0000000008002d64                pxPortInitialiseStack
 .text.SVC_Handler
                0x0000000008002d90       0x24 Middlewares/Third_Party/FreeRTOS/Source/portable/GCC/ARM_CM4F/port.o
                0x0000000008002d90                SVC_Handler
 .text.vPortEnterCritical
                0x0000000008002db4       0x44 Middlewares/Third_Party/FreeRTOS/Source/portable/GCC/ARM_CM4F/port.o
                0x0000000008002db4                vPortEnterCritical
 .text.vPortExitCritical
                0x0000000008002df8       0x2c Middlewares/Third_Party/FreeRTOS/Source/portable/GCC/ARM_CM4F/port.o
                0x0000000008002df8                vPortExitCritical
 *fill*         0x0000000008002e24        0xc 
 .text.PendSV_Handler
                0x0000000008002e30       0x64 Middlewares/Third_Party/FreeRTOS/Source/portable/GCC/ARM_CM4F/port.o
                0x0000000008002e30                PendSV_Handler
 .text.xPortSysTickHandler
                0x0000000008002e94       0x2c Middlewares/Third_Party/FreeRTOS/Source/portable/GCC/ARM_CM4F/port.o
                0x0000000008002e94                xPortSysTickHandler
 .text.vPortSetupTimerInterrupt
                0x0000000008002ec0       0x2c Middlewares/Third_Party/FreeRTOS/Source/portable/GCC/ARM_CM4F/port.o
                0x0000000008002ec0                vPortSetupTimerInterrupt
 .text.xPortStartScheduler
                0x0000000008002eec       0xe8 Middlewares/Third_Party/FreeRTOS/Source/portable/GCC/ARM_CM4F/port.o
                0x0000000008002eec                xPortStartScheduler
 .text.vPortValidateInterruptPriority
                0x0000000008002fd4       0x58 Middlewares/Third_Party/FreeRTOS/Source/portable/GCC/ARM_CM4F/port.o
                0x0000000008002fd4                vPortValidateInterruptPriority
 .text.prvHeapInit
                0x000000000800302c       0x4c Middlewares/Third_Party/FreeRTOS/Source/portable/MemMang/heap_4.o
 .text.prvInsertBlockIntoFreeList
                0x0000000008003078       0x54 Middlewares/Third_Party/FreeRTOS/Source/portable/MemMang/heap_4.o
 .text.pvPortMalloc
                0x00000000080030cc       0xf4 Middlewares/Third_Party/FreeRTOS/Source/portable/MemMang/heap_4.o
                0x00000000080030cc                pvPortMalloc
 .text.vPortFree
                0x00000000080031c0       0x6c Middlewares/Third_Party/FreeRTOS/Source/portable/MemMang/heap_4.o
                0x00000000080031c0                vPortFree
 .text.MX_CAN_Init
                0x000000000800322c       0x4c Src/can.o
                0x000000000800322c                MX_CAN_Init
 .text.HAL_CAN_MspInit
                0x0000000008003278       0x7c Src/can.o
                0x0000000008003278                HAL_CAN_MspInit
 .text.CAN_User_Config
                0x00000000080032f4      0x110 Src/can.o
                0x00000000080032f4                CAN_User_Config
 .text.CAN_Send_Data
                0x0000000008003404       0x4c Src/can.o
                0x0000000008003404                CAN_Send_Data
 .text.HAL_CAN_RxFifo0MsgPendingCallback
                0x0000000008003450       0xbc Src/can.o
                0x0000000008003450                HAL_CAN_RxFifo0MsgPendingCallback
 .text.NextTrack
                0x000000000800350c       0x22 Src/csr.o
                0x000000000800350c                NextTrack
 .text.PrevTrack
                0x000000000800352e       0x22 Src/csr.o
                0x000000000800352e                PrevTrack
 .text.PlayPause
                0x0000000008003550       0x22 Src/csr.o
                0x0000000008003550                PlayPause
 .text.Power    0x0000000008003572       0x20 Src/csr.o
                0x0000000008003572                Power
 *fill*         0x0000000008003592        0x2 
 .text.StartDefaultTask
                0x0000000008003594       0x5c Src/freertos.o
                0x0000000008003594                StartDefaultTask
 .text.nodeStatusConsumerTask
                0x00000000080035f0       0xd4 Src/freertos.o
                0x00000000080035f0                nodeStatusConsumerTask
 .text.wheelBtnConsumerTask
                0x00000000080036c4       0x44 Src/freertos.o
                0x00000000080036c4                wheelBtnConsumerTask
 .text.MX_FREERTOS_Init
                0x0000000008003708       0xd8 Src/freertos.o
                0x0000000008003708                MX_FREERTOS_Init
 .text.Beep     0x00000000080037e0       0x14 Src/freertos.o
                0x00000000080037e0                Beep
 .text.cdcCtlTask
                0x00000000080037f4       0xf4 Src/freertos.o
                0x00000000080037f4                cdcCtlTask
 .text.MX_GPIO_Init
                0x00000000080038e8       0xb4 Src/gpio.o
                0x00000000080038e8                MX_GPIO_Init
 .text.SetDebugLed
                0x000000000800399c       0x10 Src/led_task.o
                0x000000000800399c                SetDebugLed
 .text.StartDebugLedTask
                0x00000000080039ac       0x3e Src/led_task.o
                0x00000000080039ac                StartDebugLedTask
 *fill*         0x00000000080039ea        0x2 
 .text.HAL_TIM_PeriodElapsedCallback
                0x00000000080039ec       0x18 Src/main.o
                0x00000000080039ec                HAL_TIM_PeriodElapsedCallback
 .text._Error_Handler
                0x0000000008003a04       0x12 Src/main.o
                0x0000000008003a04                _Error_Handler
 *fill*         0x0000000008003a16        0x2 
 .text.SystemClock_Config
                0x0000000008003a18       0x88 Src/main.o
                0x0000000008003a18                SystemClock_Config
 .text.main     0x0000000008003aa0       0x20 Src/main.o
                0x0000000008003aa0                main
 .text.HAL_MspInit
                0x0000000008003ac0       0x90 Src/stm32f3xx_hal_msp.o
                0x0000000008003ac0                HAL_MspInit
 .text.HAL_InitTick
                0x0000000008003b50       0x78 Src/stm32f3xx_hal_timebase_TIM.o
                0x0000000008003b50                HAL_InitTick
 .text.NMI_Handler
                0x0000000008003bc8        0x8 Src/stm32f3xx_it.o
                0x0000000008003bc8                NMI_Handler
 .text.HardFault_Handler
                0x0000000008003bd0        0x2 Src/stm32f3xx_it.o
                0x0000000008003bd0                HardFault_Handler
 .text.MemManage_Handler
                0x0000000008003bd2        0x2 Src/stm32f3xx_it.o
                0x0000000008003bd2                MemManage_Handler
 .text.BusFault_Handler
                0x0000000008003bd4        0x2 Src/stm32f3xx_it.o
                0x0000000008003bd4                BusFault_Handler
 .text.UsageFault_Handler
                0x0000000008003bd6        0x2 Src/stm32f3xx_it.o
                0x0000000008003bd6                UsageFault_Handler
 .text.DebugMon_Handler
                0x0000000008003bd8        0x2 Src/stm32f3xx_it.o
                0x0000000008003bd8                DebugMon_Handler
 .text.SysTick_Handler
                0x0000000008003bda        0x8 Src/stm32f3xx_it.o
                0x0000000008003bda                SysTick_Handler
 *fill*         0x0000000008003be2        0x2 
 .text.CAN_TX_IRQHandler
                0x0000000008003be4       0x10 Src/stm32f3xx_it.o
                0x0000000008003be4                CAN_TX_IRQHandler
 .text.CAN_RX0_IRQHandler
                0x0000000008003bf4       0x10 Src/stm32f3xx_it.o
                0x0000000008003bf4                CAN_RX0_IRQHandler
 .text.CAN_RX1_IRQHandler
                0x0000000008003c04       0x10 Src/stm32f3xx_it.o
                0x0000000008003c04                CAN_RX1_IRQHandler
 .text.TIM1_UP_TIM16_IRQHandler
                0x0000000008003c14       0x10 Src/stm32f3xx_it.o
                0x0000000008003c14                TIM1_UP_TIM16_IRQHandler
 .text.SystemInit
                0x0000000008003c24       0x68 Src/system_stm32f3xx.o
                0x0000000008003c24                SystemInit
 .text.MX_USART2_UART_Init
                0x0000000008003c8c       0x44 Src/usart.o
                0x0000000008003c8c                MX_USART2_UART_Init
 .text.HAL_UART_MspInit
                0x0000000008003cd0       0x4c Src/usart.o
                0x0000000008003cd0                HAL_UART_MspInit
 .text.Reset_Handler
                0x0000000008003d1c       0x50 startup/startup_stm32f303x8.o
                0x0000000008003d1c                Reset_Handler
 .text.Default_Handler
                0x0000000008003d6c        0x2 startup/startup_stm32f303x8.o
                0x0000000008003d6c                RTC_Alarm_IRQHandler
                0x0000000008003d6c                TIM1_CC_IRQHandler
                0x0000000008003d6c                PVD_IRQHandler
                0x0000000008003d6c                TAMP_STAMP_IRQHandler
                0x0000000008003d6c                EXTI3_IRQHandler
                0x0000000008003d6c                EXTI0_IRQHandler
                0x0000000008003d6c                FPU_IRQHandler
                0x0000000008003d6c                ADC1_2_IRQHandler
                0x0000000008003d6c                SPI1_IRQHandler
                0x0000000008003d6c                CAN_SCE_IRQHandler
                0x0000000008003d6c                DMA1_Channel4_IRQHandler
                0x0000000008003d6c                USART3_IRQHandler
                0x0000000008003d6c                DMA1_Channel7_IRQHandler
                0x0000000008003d6c                TIM7_DAC2_IRQHandler
                0x0000000008003d6c                I2C1_EV_IRQHandler
                0x0000000008003d6c                DMA1_Channel6_IRQHandler
                0x0000000008003d6c                TIM3_IRQHandler
                0x0000000008003d6c                RCC_IRQHandler
                0x0000000008003d6c                DMA1_Channel1_IRQHandler
                0x0000000008003d6c                Default_Handler
                0x0000000008003d6c                EXTI15_10_IRQHandler
                0x0000000008003d6c                COMP2_IRQHandler
                0x0000000008003d6c                TIM6_DAC1_IRQHandler
                0x0000000008003d6c                EXTI9_5_IRQHandler
                0x0000000008003d6c                RTC_WKUP_IRQHandler
                0x0000000008003d6c                DMA1_Channel5_IRQHandler
                0x0000000008003d6c                EXTI4_IRQHandler
                0x0000000008003d6c                TIM1_TRG_COM_TIM17_IRQHandler
                0x0000000008003d6c                DMA1_Channel3_IRQHandler
                0x0000000008003d6c                WWDG_IRQHandler
                0x0000000008003d6c                TIM2_IRQHandler
                0x0000000008003d6c                EXTI1_IRQHandler
                0x0000000008003d6c                COMP4_6_IRQHandler
                0x0000000008003d6c                USART2_IRQHandler
                0x0000000008003d6c                DMA1_Channel2_IRQHandler
                0x0000000008003d6c                FLASH_IRQHandler
                0x0000000008003d6c                USART1_IRQHandler
                0x0000000008003d6c                I2C1_ER_IRQHandler
                0x0000000008003d6c                EXTI2_TSC_IRQHandler
                0x0000000008003d6c                TIM1_BRK_TIM15_IRQHandler
 *fill*         0x0000000008003d6e        0x2 
 .text.__libc_init_array
                0x0000000008003d70       0x48 /home/delusion/bin/Ac6_SystemWorkbench/plugins/fr.ac6.mcu.externaltools.arm-none.linux64_1.17.0.201812190825/tools/compiler/bin/../lib/gcc/arm-none-eabi/7.3.1/../../../../arm-none-eabi/lib/thumb/v7e-m/fpv4-sp/hard/libc_nano.a(lib_a-init.o)
                0x0000000008003d70                __libc_init_array
 .text.memcpy   0x0000000008003db8       0x16 /home/delusion/bin/Ac6_SystemWorkbench/plugins/fr.ac6.mcu.externaltools.arm-none.linux64_1.17.0.201812190825/tools/compiler/bin/../lib/gcc/arm-none-eabi/7.3.1/../../../../arm-none-eabi/lib/thumb/v7e-m/fpv4-sp/hard/libc_nano.a(lib_a-memcpy-stub.o)
                0x0000000008003db8                memcpy
 *(.glue_7)
 .glue_7        0x0000000008003dce        0x0 linker stubs
 *(.glue_7t)
 .glue_7t       0x0000000008003dce        0x0 linker stubs
 *(.eh_frame)
 *fill*         0x0000000008003dce        0x2 
 .eh_frame      0x0000000008003dd0        0x0 /home/delusion/bin/Ac6_SystemWorkbench/plugins/fr.ac6.mcu.externaltools.arm-none.linux64_1.17.0.201812190825/tools/compiler/bin/../lib/gcc/arm-none-eabi/7.3.1/thumb/v7e-m/fpv4-sp/hard/crtbegin.o
 *(.init)
 .init          0x0000000008003dd0        0x4 /home/delusion/bin/Ac6_SystemWorkbench/plugins/fr.ac6.mcu.externaltools.arm-none.linux64_1.17.0.201812190825/tools/compiler/bin/../lib/gcc/arm-none-eabi/7.3.1/thumb/v7e-m/fpv4-sp/hard/crti.o
                0x0000000008003dd0                _init
 .init          0x0000000008003dd4        0x8 /home/delusion/bin/Ac6_SystemWorkbench/plugins/fr.ac6.mcu.externaltools.arm-none.linux64_1.17.0.201812190825/tools/compiler/bin/../lib/gcc/arm-none-eabi/7.3.1/thumb/v7e-m/fpv4-sp/hard/crtn.o
 *(.fini)
 .fini          0x0000000008003ddc        0x4 /home/delusion/bin/Ac6_SystemWorkbench/plugins/fr.ac6.mcu.externaltools.arm-none.linux64_1.17.0.201812190825/tools/compiler/bin/../lib/gcc/arm-none-eabi/7.3.1/thumb/v7e-m/fpv4-sp/hard/crti.o
                0x0000000008003ddc                _fini
 .fini          0x0000000008003de0        0x8 /home/delusion/bin/Ac6_SystemWorkbench/plugins/fr.ac6.mcu.externaltools.arm-none.linux64_1.17.0.201812190825/tools/compiler/bin/../lib/gcc/arm-none-eabi/7.3.1/thumb/v7e-m/fpv4-sp/hard/crtn.o
                0x0000000008003de8                . = ALIGN (0x4)
                0x0000000008003de8                _etext = .

.vfp11_veneer   0x0000000008003de8        0x0
 .vfp11_veneer  0x0000000008003de8        0x0 linker stubs

.v4_bx          0x0000000008003de8        0x0
 .v4_bx         0x0000000008003de8        0x0 linker stubs

.iplt           0x0000000008003de8        0x0
 .iplt          0x0000000008003de8        0x0 /home/delusion/bin/Ac6_SystemWorkbench/plugins/fr.ac6.mcu.externaltools.arm-none.linux64_1.17.0.201812190825/tools/compiler/bin/../lib/gcc/arm-none-eabi/7.3.1/thumb/v7e-m/fpv4-sp/hard/crtbegin.o

.rodata         0x0000000008003de8      0x19c
                0x0000000008003de8                . = ALIGN (0x4)
 *(.rodata)
 .rodata        0x0000000008003de8       0x20 Drivers/STM32F3xx_HAL_Driver/Src/stm32f3xx_hal_rcc.o
                0x0000000008003de8                aPLLMULFactorTable
                0x0000000008003df8                aPredivFactorTable
 .rodata        0x0000000008003e08       0xec Src/freertos.o
 .rodata        0x0000000008003ef4       0x18 Src/system_stm32f3xx.o
                0x0000000008003ef4                AHBPrescTable
                0x0000000008003f04                APBPrescTable
 *(.rodata*)
 .rodata.str1.4
                0x0000000008003f0c        0x5 Middlewares/Third_Party/FreeRTOS/Source/tasks.o
 *fill*         0x0000000008003f11        0x3 
 .rodata.str1.4
                0x0000000008003f14        0xd Src/can.o
 *fill*         0x0000000008003f21        0x3 
 .rodata.str1.4
                0x0000000008003f24       0x40 Src/freertos.o
 .rodata.str1.4
                0x0000000008003f64        0xe Src/main.o
 *fill*         0x0000000008003f72        0x2 
 .rodata.str1.4
                0x0000000008003f74       0x10 Src/usart.o
                                          0xf (size before relaxing)
                0x0000000008003f84                . = ALIGN (0x4)

.rel.dyn        0x0000000008003f84        0x0
 .rel.iplt      0x0000000008003f84        0x0 /home/delusion/bin/Ac6_SystemWorkbench/plugins/fr.ac6.mcu.externaltools.arm-none.linux64_1.17.0.201812190825/tools/compiler/bin/../lib/gcc/arm-none-eabi/7.3.1/thumb/v7e-m/fpv4-sp/hard/crtbegin.o

.ARM.extab
 *(.ARM.extab* .gnu.linkonce.armextab.*)

.ARM            0x0000000008003f84        0x0
                0x0000000008003f84                __exidx_start = .
 *(.ARM.exidx*)
                0x0000000008003f84                __exidx_end = .

.preinit_array  0x0000000008003f84        0x0
                0x0000000008003f84                PROVIDE (__preinit_array_start = .)
 *(.preinit_array*)
                0x0000000008003f84                PROVIDE (__preinit_array_end = .)

.init_array     0x0000000008003f84        0x4
                0x0000000008003f84                PROVIDE (__init_array_start = .)
 *(SORT_BY_NAME(.init_array.*))
 *(.init_array*)
 .init_array    0x0000000008003f84        0x4 /home/delusion/bin/Ac6_SystemWorkbench/plugins/fr.ac6.mcu.externaltools.arm-none.linux64_1.17.0.201812190825/tools/compiler/bin/../lib/gcc/arm-none-eabi/7.3.1/thumb/v7e-m/fpv4-sp/hard/crtbegin.o
                0x0000000008003f88                PROVIDE (__init_array_end = .)

.fini_array     0x0000000008003f88        0x4
                [!provide]                        PROVIDE (__fini_array_start = .)
 *(SORT_BY_NAME(.fini_array.*))
 *(.fini_array*)
 .fini_array    0x0000000008003f88        0x4 /home/delusion/bin/Ac6_SystemWorkbench/plugins/fr.ac6.mcu.externaltools.arm-none.linux64_1.17.0.201812190825/tools/compiler/bin/../lib/gcc/arm-none-eabi/7.3.1/thumb/v7e-m/fpv4-sp/hard/crtbegin.o
                [!provide]                        PROVIDE (__fini_array_end = .)
                0x0000000008003f8c                _sidata = LOADADDR (.data)

.data           0x0000000020000000       0x18 load address 0x0000000008003f8c
                0x0000000020000000                . = ALIGN (0x4)
                0x0000000020000000                _sdata = .
 *(.data)
 .data          0x0000000020000000        0x8 Drivers/STM32F3xx_HAL_Driver/Src/stm32f3xx_hal.o
                0x0000000020000000                uwTickFreq
                0x0000000020000004                uwTickPrio
 .data          0x0000000020000008        0x4 Middlewares/Third_Party/FreeRTOS/Source/portable/GCC/ARM_CM4F/port.o
 .data          0x000000002000000c        0x8 Src/freertos.o
 .data          0x0000000020000014        0x4 Src/system_stm32f3xx.o
                0x0000000020000014                SystemCoreClock
 *(.data*)
                0x0000000020000018                . = ALIGN (0x4)
                0x0000000020000018                _edata = .
                0x0000000008003fa4                _siccmram = LOADADDR (.ccmram)

.igot.plt       0x0000000020000018        0x0 load address 0x0000000008003fa4
 .igot.plt      0x0000000020000018        0x0 /home/delusion/bin/Ac6_SystemWorkbench/plugins/fr.ac6.mcu.externaltools.arm-none.linux64_1.17.0.201812190825/tools/compiler/bin/../lib/gcc/arm-none-eabi/7.3.1/thumb/v7e-m/fpv4-sp/hard/crtbegin.o

.ccmram         0x0000000010000000        0x0 load address 0x0000000008003fa4
                0x0000000010000000                . = ALIGN (0x4)
                0x0000000010000000                _sccmram = .
 *(.ccmram)
 *(.ccmram*)
                0x0000000010000000                . = ALIGN (0x4)
                0x0000000010000000                _eccmram = .
                0x0000000010000000                . = ALIGN (0x4)

.bss            0x0000000020000018     0x22b8
                0x0000000020000018                _sbss = .
                0x0000000020000018                __bss_start__ = _sbss
 *(.bss)
 .bss           0x0000000020000018       0x1c /home/delusion/bin/Ac6_SystemWorkbench/plugins/fr.ac6.mcu.externaltools.arm-none.linux64_1.17.0.201812190825/tools/compiler/bin/../lib/gcc/arm-none-eabi/7.3.1/thumb/v7e-m/fpv4-sp/hard/crtbegin.o
 .bss           0x0000000020000034      0x12c Middlewares/Third_Party/FreeRTOS/Source/tasks.o
                0x0000000020000134                pxCurrentTCB
 .bss           0x0000000020000160        0x8 Middlewares/Third_Party/FreeRTOS/Source/portable/GCC/ARM_CM4F/port.o
 .bss           0x0000000020000168     0x2018 Middlewares/Third_Party/FreeRTOS/Source/portable/MemMang/heap_4.o
 .bss           0x0000000020002180        0x2 Src/freertos.o
                0x0000000020002180                cdcActive
                0x0000000020002181                allowText
 *(.bss*)
 *(COMMON)
 *fill*         0x0000000020002182        0x2 
 COMMON         0x0000000020002184        0x4 Drivers/STM32F3xx_HAL_Driver/Src/stm32f3xx_hal.o
                0x0000000020002184                uwTick
 COMMON         0x0000000020002188       0x70 Src/can.o
                0x0000000020002188                hcan
                0x00000000200021b0                TxData
                0x00000000200021b8                TxMailbox
                0x00000000200021bc                RxData
                0x00000000200021c4                TxHeader
                0x00000000200021dc                RxHeader
 COMMON         0x00000000200021f8       0x28 Src/freertos.o
                0x00000000200021f8                defaultTaskHandle
                0x00000000200021fc                cdcCtlTaskHandle
                0x0000000020002200                wheelBtnTaskHandle
                0x0000000020002204                wheelBtnQueueResult
                0x0000000020002208                nStatQueueHandle
                0x000000002000220c                nStatQueueResult
                0x0000000020002210                debugLedTaskHandle
                0x0000000020002214                cdcCtlQueueHandle
                0x0000000020002218                nodeStatTaskHandle
                0x000000002000221c                wheelBtnQueueHandle
 COMMON         0x0000000020002220       0x40 Src/stm32f3xx_hal_timebase_TIM.o
                0x0000000020002220                htim16
 COMMON         0x0000000020002260       0x70 Src/usart.o
                0x0000000020002260                huart2
                0x00000000200022d0                . = ALIGN (0x4)
                0x00000000200022d0                _ebss = .
                0x00000000200022d0                __bss_end__ = _ebss

._user_heap_stack
                0x00000000200022d0      0x600
                0x00000000200022d0                . = ALIGN (0x8)
                0x00000000200022d0                PROVIDE (end = .)
                [!provide]                        PROVIDE (_end = .)
                0x00000000200024d0                . = (. + _Min_Heap_Size)
 *fill*         0x00000000200022d0      0x200 
                0x00000000200028d0                . = (. + _Min_Stack_Size)
 *fill*         0x00000000200024d0      0x400 
                0x00000000200028d0                . = ALIGN (0x8)

/DISCARD/
 libc.a(*)
 libm.a(*)
 libgcc.a(*)

.ARM.attributes
                0x0000000000000000       0x30
 *(.ARM.attributes)
 .ARM.attributes
                0x0000000000000000       0x22 /home/delusion/bin/Ac6_SystemWorkbench/plugins/fr.ac6.mcu.externaltools.arm-none.linux64_1.17.0.201812190825/tools/compiler/bin/../lib/gcc/arm-none-eabi/7.3.1/thumb/v7e-m/fpv4-sp/hard/crti.o
 .ARM.attributes
                0x0000000000000022       0x34 /home/delusion/bin/Ac6_SystemWorkbench/plugins/fr.ac6.mcu.externaltools.arm-none.linux64_1.17.0.201812190825/tools/compiler/bin/../lib/gcc/arm-none-eabi/7.3.1/thumb/v7e-m/fpv4-sp/hard/crtbegin.o
 .ARM.attributes
                0x0000000000000056       0x39 Drivers/STM32F3xx_HAL_Driver/Src/stm32f3xx_hal.o
 .ARM.attributes
                0x000000000000008f       0x39 Drivers/STM32F3xx_HAL_Driver/Src/stm32f3xx_hal_can.o
 .ARM.attributes
                0x00000000000000c8       0x39 Drivers/STM32F3xx_HAL_Driver/Src/stm32f3xx_hal_cortex.o
 .ARM.attributes
                0x0000000000000101       0x39 Drivers/STM32F3xx_HAL_Driver/Src/stm32f3xx_hal_gpio.o
 .ARM.attributes
                0x000000000000013a       0x39 Drivers/STM32F3xx_HAL_Driver/Src/stm32f3xx_hal_rcc.o
 .ARM.attributes
                0x0000000000000173       0x39 Drivers/STM32F3xx_HAL_Driver/Src/stm32f3xx_hal_tim.o
 .ARM.attributes
                0x00000000000001ac       0x39 Drivers/STM32F3xx_HAL_Driver/Src/stm32f3xx_hal_tim_ex.o
 .ARM.attributes
                0x00000000000001e5       0x39 Drivers/STM32F3xx_HAL_Driver/Src/stm32f3xx_hal_uart.o
 .ARM.attributes
                0x000000000000021e       0x39 Middlewares/Third_Party/FreeRTOS/Source/CMSIS_RTOS/cmsis_os.o
 .ARM.attributes
                0x0000000000000257       0x39 Middlewares/Third_Party/FreeRTOS/Source/list.o
 .ARM.attributes
                0x0000000000000290       0x39 Middlewares/Third_Party/FreeRTOS/Source/queue.o
 .ARM.attributes
                0x00000000000002c9       0x39 Middlewares/Third_Party/FreeRTOS/Source/tasks.o
 .ARM.attributes
                0x0000000000000302       0x39 Middlewares/Third_Party/FreeRTOS/Source/portable/GCC/ARM_CM4F/port.o
 .ARM.attributes
                0x000000000000033b       0x39 Middlewares/Third_Party/FreeRTOS/Source/portable/MemMang/heap_4.o
 .ARM.attributes
                0x0000000000000374       0x39 Src/can.o
 .ARM.attributes
                0x00000000000003ad       0x39 Src/csr.o
 .ARM.attributes
                0x00000000000003e6       0x39 Src/freertos.o
 .ARM.attributes
                0x000000000000041f       0x39 Src/gpio.o
 .ARM.attributes
                0x0000000000000458       0x39 Src/led_task.o
 .ARM.attributes
                0x0000000000000491       0x39 Src/main.o
 .ARM.attributes
                0x00000000000004ca       0x39 Src/stm32f3xx_hal_msp.o
 .ARM.attributes
                0x0000000000000503       0x39 Src/stm32f3xx_hal_timebase_TIM.o
 .ARM.attributes
                0x000000000000053c       0x39 Src/stm32f3xx_it.o
 .ARM.attributes
                0x0000000000000575       0x39 Src/system_stm32f3xx.o
 .ARM.attributes
                0x00000000000005ae       0x39 Src/usart.o
 .ARM.attributes
                0x00000000000005e7       0x21 startup/startup_stm32f303x8.o
 .ARM.attributes
                0x0000000000000608       0x34 /home/delusion/bin/Ac6_SystemWorkbench/plugins/fr.ac6.mcu.externaltools.arm-none.linux64_1.17.0.201812190825/tools/compiler/bin/../lib/gcc/arm-none-eabi/7.3.1/../../../../arm-none-eabi/lib/thumb/v7e-m/fpv4-sp/hard/libc_nano.a(lib_a-init.o)
 .ARM.attributes
                0x000000000000063c       0x34 /home/delusion/bin/Ac6_SystemWorkbench/plugins/fr.ac6.mcu.externaltools.arm-none.linux64_1.17.0.201812190825/tools/compiler/bin/../lib/gcc/arm-none-eabi/7.3.1/../../../../arm-none-eabi/lib/thumb/v7e-m/fpv4-sp/hard/libc_nano.a(lib_a-memcpy-stub.o)
 .ARM.attributes
                0x0000000000000670       0x22 /home/delusion/bin/Ac6_SystemWorkbench/plugins/fr.ac6.mcu.externaltools.arm-none.linux64_1.17.0.201812190825/tools/compiler/bin/../lib/gcc/arm-none-eabi/7.3.1/thumb/v7e-m/fpv4-sp/hard/crtn.o
OUTPUT(saab_cdx_emu.elf elf32-littlearm)

.debug_info     0x0000000000000000    0x2340c
 .debug_info    0x0000000000000000     0x1016 Drivers/STM32F3xx_HAL_Driver/Src/stm32f3xx_hal.o
 .debug_info    0x0000000000001016     0x1954 Drivers/STM32F3xx_HAL_Driver/Src/stm32f3xx_hal_can.o
 .debug_info    0x000000000000296a     0x14cf Drivers/STM32F3xx_HAL_Driver/Src/stm32f3xx_hal_cortex.o
 .debug_info    0x0000000000003e39      0xff8 Drivers/STM32F3xx_HAL_Driver/Src/stm32f3xx_hal_gpio.o
 .debug_info    0x0000000000004e31     0x1c80 Drivers/STM32F3xx_HAL_Driver/Src/stm32f3xx_hal_rcc.o
 .debug_info    0x0000000000006ab1     0x3821 Drivers/STM32F3xx_HAL_Driver/Src/stm32f3xx_hal_tim.o
 .debug_info    0x000000000000a2d2     0x1ed5 Drivers/STM32F3xx_HAL_Driver/Src/stm32f3xx_hal_tim_ex.o
 .debug_info    0x000000000000c1a7     0x2235 Drivers/STM32F3xx_HAL_Driver/Src/stm32f3xx_hal_uart.o
 .debug_info    0x000000000000e3dc     0x231e Middlewares/Third_Party/FreeRTOS/Source/CMSIS_RTOS/cmsis_os.o
 .debug_info    0x00000000000106fa      0xacd Middlewares/Third_Party/FreeRTOS/Source/list.o
 .debug_info    0x00000000000111c7     0x1f82 Middlewares/Third_Party/FreeRTOS/Source/queue.o
 .debug_info    0x0000000000013149     0x2916 Middlewares/Third_Party/FreeRTOS/Source/tasks.o
 .debug_info    0x0000000000015a5f      0x532 Middlewares/Third_Party/FreeRTOS/Source/portable/GCC/ARM_CM4F/port.o
 .debug_info    0x0000000000015f91      0xc71 Middlewares/Third_Party/FreeRTOS/Source/portable/MemMang/heap_4.o
 .debug_info    0x0000000000016c02     0x1d46 Src/can.o
 .debug_info    0x0000000000018948      0xc68 Src/csr.o
 .debug_info    0x00000000000195b0     0x1ad4 Src/freertos.o
 .debug_info    0x000000000001b084      0xcb6 Src/gpio.o
 .debug_info    0x000000000001bd3a      0xb8e Src/led_task.o
 .debug_info    0x000000000001c8c8     0x1a8d Src/main.o
 .debug_info    0x000000000001e355      0xce1 Src/stm32f3xx_hal_msp.o
 .debug_info    0x000000000001f036     0x124e Src/stm32f3xx_hal_timebase_TIM.o
 .debug_info    0x0000000000020284     0x1322 Src/stm32f3xx_it.o
 .debug_info    0x00000000000215a6      0xc82 Src/system_stm32f3xx.o
 .debug_info    0x0000000000022228     0x11c2 Src/usart.o
 .debug_info    0x00000000000233ea       0x22 startup/startup_stm32f303x8.o

.debug_abbrev   0x0000000000000000     0x45d0
 .debug_abbrev  0x0000000000000000      0x2e1 Drivers/STM32F3xx_HAL_Driver/Src/stm32f3xx_hal.o
 .debug_abbrev  0x00000000000002e1      0x32e Drivers/STM32F3xx_HAL_Driver/Src/stm32f3xx_hal_can.o
 .debug_abbrev  0x000000000000060f      0x3b1 Drivers/STM32F3xx_HAL_Driver/Src/stm32f3xx_hal_cortex.o
 .debug_abbrev  0x00000000000009c0      0x2a7 Drivers/STM32F3xx_HAL_Driver/Src/stm32f3xx_hal_gpio.o
 .debug_abbrev  0x0000000000000c67      0x365 Drivers/STM32F3xx_HAL_Driver/Src/stm32f3xx_hal_rcc.o
 .debug_abbrev  0x0000000000000fcc      0x2e0 Drivers/STM32F3xx_HAL_Driver/Src/stm32f3xx_hal_tim.o
 .debug_abbrev  0x00000000000012ac      0x2e0 Drivers/STM32F3xx_HAL_Driver/Src/stm32f3xx_hal_tim_ex.o
 .debug_abbrev  0x000000000000158c      0x2eb Drivers/STM32F3xx_HAL_Driver/Src/stm32f3xx_hal_uart.o
 .debug_abbrev  0x0000000000001877      0x3d4 Middlewares/Third_Party/FreeRTOS/Source/CMSIS_RTOS/cmsis_os.o
 .debug_abbrev  0x0000000000001c4b      0x21c Middlewares/Third_Party/FreeRTOS/Source/list.o
 .debug_abbrev  0x0000000000001e67      0x385 Middlewares/Third_Party/FreeRTOS/Source/queue.o
 .debug_abbrev  0x00000000000021ec      0x3cf Middlewares/Third_Party/FreeRTOS/Source/tasks.o
 .debug_abbrev  0x00000000000025bb      0x216 Middlewares/Third_Party/FreeRTOS/Source/portable/GCC/ARM_CM4F/port.o
 .debug_abbrev  0x00000000000027d1      0x318 Middlewares/Third_Party/FreeRTOS/Source/portable/MemMang/heap_4.o
 .debug_abbrev  0x0000000000002ae9      0x2d1 Src/can.o
 .debug_abbrev  0x0000000000002dba      0x220 Src/csr.o
 .debug_abbrev  0x0000000000002fda      0x34b Src/freertos.o
 .debug_abbrev  0x0000000000003325      0x22b Src/gpio.o
 .debug_abbrev  0x0000000000003550      0x250 Src/led_task.o
 .debug_abbrev  0x00000000000037a0      0x29d Src/main.o
 .debug_abbrev  0x0000000000003a3d      0x234 Src/stm32f3xx_hal_msp.o
 .debug_abbrev  0x0000000000003c71      0x299 Src/stm32f3xx_hal_timebase_TIM.o
 .debug_abbrev  0x0000000000003f0a      0x23d Src/stm32f3xx_it.o
 .debug_abbrev  0x0000000000004147      0x21f Src/system_stm32f3xx.o
 .debug_abbrev  0x0000000000004366      0x258 Src/usart.o
 .debug_abbrev  0x00000000000045be       0x12 startup/startup_stm32f303x8.o

.debug_loc      0x0000000000000000     0xbec0
 .debug_loc     0x0000000000000000       0xfd Drivers/STM32F3xx_HAL_Driver/Src/stm32f3xx_hal.o
 .debug_loc     0x00000000000000fd      0xc41 Drivers/STM32F3xx_HAL_Driver/Src/stm32f3xx_hal_can.o
 .debug_loc     0x0000000000000d3e      0x5ad Drivers/STM32F3xx_HAL_Driver/Src/stm32f3xx_hal_cortex.o
 .debug_loc     0x00000000000012eb      0x361 Drivers/STM32F3xx_HAL_Driver/Src/stm32f3xx_hal_gpio.o
 .debug_loc     0x000000000000164c      0x951 Drivers/STM32F3xx_HAL_Driver/Src/stm32f3xx_hal_rcc.o
 .debug_loc     0x0000000000001f9d     0x3744 Drivers/STM32F3xx_HAL_Driver/Src/stm32f3xx_hal_tim.o
 .debug_loc     0x00000000000056e1     0x19c7 Drivers/STM32F3xx_HAL_Driver/Src/stm32f3xx_hal_tim_ex.o
 .debug_loc     0x00000000000070a8     0x160e Drivers/STM32F3xx_HAL_Driver/Src/stm32f3xx_hal_uart.o
 .debug_loc     0x00000000000086b6      0xee1 Middlewares/Third_Party/FreeRTOS/Source/CMSIS_RTOS/cmsis_os.o
 .debug_loc     0x0000000000009597       0x70 Middlewares/Third_Party/FreeRTOS/Source/list.o
 .debug_loc     0x0000000000009607      0xdc3 Middlewares/Third_Party/FreeRTOS/Source/queue.o
 .debug_loc     0x000000000000a3ca     0x11ef Middlewares/Third_Party/FreeRTOS/Source/tasks.o
 .debug_loc     0x000000000000b5b9       0xdc Middlewares/Third_Party/FreeRTOS/Source/portable/GCC/ARM_CM4F/port.o
 .debug_loc     0x000000000000b695      0x291 Middlewares/Third_Party/FreeRTOS/Source/portable/MemMang/heap_4.o
 .debug_loc     0x000000000000b926       0xb8 Src/can.o
 .debug_loc     0x000000000000b9de       0x74 Src/csr.o
 .debug_loc     0x000000000000ba52      0x1e0 Src/freertos.o
 .debug_loc     0x000000000000bc32       0x3f Src/led_task.o
 .debug_loc     0x000000000000bc71       0x7c Src/main.o
 .debug_loc     0x000000000000bced       0x79 Src/stm32f3xx_hal_timebase_TIM.o
 .debug_loc     0x000000000000bd66       0xff Src/system_stm32f3xx.o
 .debug_loc     0x000000000000be65       0x5b Src/usart.o

.debug_aranges  0x0000000000000000     0x1260
 .debug_aranges
                0x0000000000000000       0xe0 Drivers/STM32F3xx_HAL_Driver/Src/stm32f3xx_hal.o
 .debug_aranges
                0x00000000000000e0      0x138 Drivers/STM32F3xx_HAL_Driver/Src/stm32f3xx_hal_can.o
 .debug_aranges
                0x0000000000000218       0x90 Drivers/STM32F3xx_HAL_Driver/Src/stm32f3xx_hal_cortex.o
 .debug_aranges
                0x00000000000002a8       0x58 Drivers/STM32F3xx_HAL_Driver/Src/stm32f3xx_hal_gpio.o
 .debug_aranges
                0x0000000000000300       0x88 Drivers/STM32F3xx_HAL_Driver/Src/stm32f3xx_hal_rcc.o
 .debug_aranges
                0x0000000000000388      0x378 Drivers/STM32F3xx_HAL_Driver/Src/stm32f3xx_hal_tim.o
 .debug_aranges
                0x0000000000000700      0x178 Drivers/STM32F3xx_HAL_Driver/Src/stm32f3xx_hal_tim_ex.o
 .debug_aranges
                0x0000000000000878      0x1f0 Drivers/STM32F3xx_HAL_Driver/Src/stm32f3xx_hal_uart.o
 .debug_aranges
                0x0000000000000a68      0x1d8 Middlewares/Third_Party/FreeRTOS/Source/CMSIS_RTOS/cmsis_os.o
 .debug_aranges
                0x0000000000000c40       0x40 Middlewares/Third_Party/FreeRTOS/Source/list.o
 .debug_aranges
                0x0000000000000c80       0xe0 Middlewares/Third_Party/FreeRTOS/Source/queue.o
 .debug_aranges
                0x0000000000000d60      0x190 Middlewares/Third_Party/FreeRTOS/Source/tasks.o
 .debug_aranges
                0x0000000000000ef0       0x80 Middlewares/Third_Party/FreeRTOS/Source/portable/GCC/ARM_CM4F/port.o
 .debug_aranges
                0x0000000000000f70       0x50 Middlewares/Third_Party/FreeRTOS/Source/portable/MemMang/heap_4.o
 .debug_aranges
                0x0000000000000fc0       0x48 Src/can.o
 .debug_aranges
                0x0000000000001008       0x40 Src/csr.o
 .debug_aranges
                0x0000000000001048       0x58 Src/freertos.o
 .debug_aranges
                0x00000000000010a0       0x20 Src/gpio.o
 .debug_aranges
                0x00000000000010c0       0x28 Src/led_task.o
 .debug_aranges
                0x00000000000010e8       0x38 Src/main.o
 .debug_aranges
                0x0000000000001120       0x20 Src/stm32f3xx_hal_msp.o
 .debug_aranges
                0x0000000000001140       0x30 Src/stm32f3xx_hal_timebase_TIM.o
 .debug_aranges
                0x0000000000001170       0x70 Src/stm32f3xx_it.o
 .debug_aranges
                0x00000000000011e0       0x28 Src/system_stm32f3xx.o
 .debug_aranges
                0x0000000000001208       0x30 Src/usart.o
 .debug_aranges
                0x0000000000001238       0x28 startup/startup_stm32f303x8.o

.debug_ranges   0x0000000000000000     0x1288
 .debug_ranges  0x0000000000000000       0xd0 Drivers/STM32F3xx_HAL_Driver/Src/stm32f3xx_hal.o
 .debug_ranges  0x00000000000000d0      0x128 Drivers/STM32F3xx_HAL_Driver/Src/stm32f3xx_hal_can.o
 .debug_ranges  0x00000000000001f8       0xe0 Drivers/STM32F3xx_HAL_Driver/Src/stm32f3xx_hal_cortex.o
 .debug_ranges  0x00000000000002d8       0x48 Drivers/STM32F3xx_HAL_Driver/Src/stm32f3xx_hal_gpio.o
 .debug_ranges  0x0000000000000320       0x98 Drivers/STM32F3xx_HAL_Driver/Src/stm32f3xx_hal_rcc.o
 .debug_ranges  0x00000000000003b8      0x368 Drivers/STM32F3xx_HAL_Driver/Src/stm32f3xx_hal_tim.o
 .debug_ranges  0x0000000000000720      0x168 Drivers/STM32F3xx_HAL_Driver/Src/stm32f3xx_hal_tim_ex.o
 .debug_ranges  0x0000000000000888      0x1e0 Drivers/STM32F3xx_HAL_Driver/Src/stm32f3xx_hal_uart.o
 .debug_ranges  0x0000000000000a68      0x1c8 Middlewares/Third_Party/FreeRTOS/Source/CMSIS_RTOS/cmsis_os.o
 .debug_ranges  0x0000000000000c30       0x30 Middlewares/Third_Party/FreeRTOS/Source/list.o
 .debug_ranges  0x0000000000000c60      0x170 Middlewares/Third_Party/FreeRTOS/Source/queue.o
 .debug_ranges  0x0000000000000dd0      0x1f0 Middlewares/Third_Party/FreeRTOS/Source/tasks.o
 .debug_ranges  0x0000000000000fc0       0x70 Middlewares/Third_Party/FreeRTOS/Source/portable/GCC/ARM_CM4F/port.o
 .debug_ranges  0x0000000000001030       0x40 Middlewares/Third_Party/FreeRTOS/Source/portable/MemMang/heap_4.o
 .debug_ranges  0x0000000000001070       0x38 Src/can.o
 .debug_ranges  0x00000000000010a8       0x30 Src/csr.o
 .debug_ranges  0x00000000000010d8       0x78 Src/freertos.o
 .debug_ranges  0x0000000000001150       0x10 Src/gpio.o
 .debug_ranges  0x0000000000001160       0x18 Src/led_task.o
 .debug_ranges  0x0000000000001178       0x28 Src/main.o
 .debug_ranges  0x00000000000011a0       0x10 Src/stm32f3xx_hal_msp.o
 .debug_ranges  0x00000000000011b0       0x20 Src/stm32f3xx_hal_timebase_TIM.o
 .debug_ranges  0x00000000000011d0       0x60 Src/stm32f3xx_it.o
 .debug_ranges  0x0000000000001230       0x18 Src/system_stm32f3xx.o
 .debug_ranges  0x0000000000001248       0x20 Src/usart.o
 .debug_ranges  0x0000000000001268       0x20 startup/startup_stm32f303x8.o

.debug_macro    0x0000000000000000    0x1c05d
 .debug_macro   0x0000000000000000      0x34f Drivers/STM32F3xx_HAL_Driver/Src/stm32f3xx_hal.o
 .debug_macro   0x000000000000034f      0xa60 Drivers/STM32F3xx_HAL_Driver/Src/stm32f3xx_hal.o
 .debug_macro   0x0000000000000daf       0x34 Drivers/STM32F3xx_HAL_Driver/Src/stm32f3xx_hal.o
 .debug_macro   0x0000000000000de3       0xab Drivers/STM32F3xx_HAL_Driver/Src/stm32f3xx_hal.o
 .debug_macro   0x0000000000000e8e       0x2f Drivers/STM32F3xx_HAL_Driver/Src/stm32f3xx_hal.o
 .debug_macro   0x0000000000000ebd       0x28 Drivers/STM32F3xx_HAL_Driver/Src/stm32f3xx_hal.o
 .debug_macro   0x0000000000000ee5       0x22 Drivers/STM32F3xx_HAL_Driver/Src/stm32f3xx_hal.o
 .debug_macro   0x0000000000000f07       0x8e Drivers/STM32F3xx_HAL_Driver/Src/stm32f3xx_hal.o
 .debug_macro   0x0000000000000f95       0x51 Drivers/STM32F3xx_HAL_Driver/Src/stm32f3xx_hal.o
 .debug_macro   0x0000000000000fe6       0xef Drivers/STM32F3xx_HAL_Driver/Src/stm32f3xx_hal.o
 .debug_macro   0x00000000000010d5       0x6a Drivers/STM32F3xx_HAL_Driver/Src/stm32f3xx_hal.o
 .debug_macro   0x000000000000113f      0x1df Drivers/STM32F3xx_HAL_Driver/Src/stm32f3xx_hal.o
 .debug_macro   0x000000000000131e       0x35 Drivers/STM32F3xx_HAL_Driver/Src/stm32f3xx_hal.o
 .debug_macro   0x0000000000001353       0x50 Drivers/STM32F3xx_HAL_Driver/Src/stm32f3xx_hal.o
 .debug_macro   0x00000000000013a3      0xd40 Drivers/STM32F3xx_HAL_Driver/Src/stm32f3xx_hal.o
 .debug_macro   0x00000000000020e3    0x10bf5 Drivers/STM32F3xx_HAL_Driver/Src/stm32f3xx_hal.o
 .debug_macro   0x0000000000012cd8       0x43 Drivers/STM32F3xx_HAL_Driver/Src/stm32f3xx_hal.o
 .debug_macro   0x0000000000012d1b       0x5e Drivers/STM32F3xx_HAL_Driver/Src/stm32f3xx_hal.o
 .debug_macro   0x0000000000012d79       0x18 Drivers/STM32F3xx_HAL_Driver/Src/stm32f3xx_hal.o
 .debug_macro   0x0000000000012d91       0x35 Drivers/STM32F3xx_HAL_Driver/Src/stm32f3xx_hal.o
 .debug_macro   0x0000000000012dc6       0x34 Drivers/STM32F3xx_HAL_Driver/Src/stm32f3xx_hal.o
 .debug_macro   0x0000000000012dfa       0x16 Drivers/STM32F3xx_HAL_Driver/Src/stm32f3xx_hal.o
 .debug_macro   0x0000000000012e10       0x97 Drivers/STM32F3xx_HAL_Driver/Src/stm32f3xx_hal.o
 .debug_macro   0x0000000000012ea7      0x330 Drivers/STM32F3xx_HAL_Driver/Src/stm32f3xx_hal.o
 .debug_macro   0x00000000000131d7       0xfd Drivers/STM32F3xx_HAL_Driver/Src/stm32f3xx_hal.o
 .debug_macro   0x00000000000132d4       0x10 Drivers/STM32F3xx_HAL_Driver/Src/stm32f3xx_hal.o
 .debug_macro   0x00000000000132e4       0x58 Drivers/STM32F3xx_HAL_Driver/Src/stm32f3xx_hal.o
 .debug_macro   0x000000000001333c       0x1f Drivers/STM32F3xx_HAL_Driver/Src/stm32f3xx_hal.o
 .debug_macro   0x000000000001335b       0x43 Drivers/STM32F3xx_HAL_Driver/Src/stm32f3xx_hal.o
 .debug_macro   0x000000000001339e       0x20 Drivers/STM32F3xx_HAL_Driver/Src/stm32f3xx_hal.o
 .debug_macro   0x00000000000133be      0x18e Drivers/STM32F3xx_HAL_Driver/Src/stm32f3xx_hal.o
 .debug_macro   0x000000000001354c       0x10 Drivers/STM32F3xx_HAL_Driver/Src/stm32f3xx_hal.o
 .debug_macro   0x000000000001355c       0x1c Drivers/STM32F3xx_HAL_Driver/Src/stm32f3xx_hal.o
 .debug_macro   0x0000000000013578       0x52 Drivers/STM32F3xx_HAL_Driver/Src/stm32f3xx_hal.o
 .debug_macro   0x00000000000135ca       0x40 Drivers/STM32F3xx_HAL_Driver/Src/stm32f3xx_hal.o
 .debug_macro   0x000000000001360a       0x10 Drivers/STM32F3xx_HAL_Driver/Src/stm32f3xx_hal.o
 .debug_macro   0x000000000001361a       0x40 Drivers/STM32F3xx_HAL_Driver/Src/stm32f3xx_hal.o
 .debug_macro   0x000000000001365a       0xd7 Drivers/STM32F3xx_HAL_Driver/Src/stm32f3xx_hal.o
 .debug_macro   0x0000000000013731       0x1c Drivers/STM32F3xx_HAL_Driver/Src/stm32f3xx_hal.o
 .debug_macro   0x000000000001374d       0x3d Drivers/STM32F3xx_HAL_Driver/Src/stm32f3xx_hal.o
 .debug_macro   0x000000000001378a       0x16 Drivers/STM32F3xx_HAL_Driver/Src/stm32f3xx_hal.o
 .debug_macro   0x00000000000137a0      0x16f Drivers/STM32F3xx_HAL_Driver/Src/stm32f3xx_hal.o
 .debug_macro   0x000000000001390f       0x49 Drivers/STM32F3xx_HAL_Driver/Src/stm32f3xx_hal.o
 .debug_macro   0x0000000000013958      0x8ff Drivers/STM32F3xx_HAL_Driver/Src/stm32f3xx_hal.o
 .debug_macro   0x0000000000014257      0x304 Drivers/STM32F3xx_HAL_Driver/Src/stm32f3xx_hal.o
 .debug_macro   0x000000000001455b      0x13a Drivers/STM32F3xx_HAL_Driver/Src/stm32f3xx_hal.o
 .debug_macro   0x0000000000014695      0x11b Drivers/STM32F3xx_HAL_Driver/Src/stm32f3xx_hal.o
 .debug_macro   0x00000000000147b0      0x1bc Drivers/STM32F3xx_HAL_Driver/Src/stm32f3xx_hal.o
 .debug_macro   0x000000000001496c       0x34 Drivers/STM32F3xx_HAL_Driver/Src/stm32f3xx_hal.o
 .debug_macro   0x00000000000149a0       0x3c Drivers/STM32F3xx_HAL_Driver/Src/stm32f3xx_hal.o
 .debug_macro   0x00000000000149dc       0x57 Drivers/STM32F3xx_HAL_Driver/Src/stm32f3xx_hal.o
 .debug_macro   0x0000000000014a33      0x40f Drivers/STM32F3xx_HAL_Driver/Src/stm32f3xx_hal.o
 .debug_macro   0x0000000000014e42       0xcb Drivers/STM32F3xx_HAL_Driver/Src/stm32f3xx_hal.o
 .debug_macro   0x0000000000014f0d      0x1a0 Drivers/STM32F3xx_HAL_Driver/Src/stm32f3xx_hal.o
 .debug_macro   0x00000000000150ad      0x209 Drivers/STM32F3xx_HAL_Driver/Src/stm32f3xx_hal.o
 .debug_macro   0x00000000000152b6       0x5b Drivers/STM32F3xx_HAL_Driver/Src/stm32f3xx_hal.o
 .debug_macro   0x0000000000015311       0x90 Drivers/STM32F3xx_HAL_Driver/Src/stm32f3xx_hal.o
 .debug_macro   0x00000000000153a1       0x82 Drivers/STM32F3xx_HAL_Driver/Src/stm32f3xx_hal.o
 .debug_macro   0x0000000000015423       0xd3 Drivers/STM32F3xx_HAL_Driver/Src/stm32f3xx_hal.o
 .debug_macro   0x00000000000154f6      0x6af Drivers/STM32F3xx_HAL_Driver/Src/stm32f3xx_hal.o
 .debug_macro   0x0000000000015ba5      0x328 Drivers/STM32F3xx_HAL_Driver/Src/stm32f3xx_hal.o
 .debug_macro   0x0000000000015ecd      0x566 Drivers/STM32F3xx_HAL_Driver/Src/stm32f3xx_hal.o
 .debug_macro   0x0000000000016433       0x31 Drivers/STM32F3xx_HAL_Driver/Src/stm32f3xx_hal.o
 .debug_macro   0x0000000000016464      0x28c Drivers/STM32F3xx_HAL_Driver/Src/stm32f3xx_hal.o
 .debug_macro   0x00000000000166f0      0x333 Drivers/STM32F3xx_HAL_Driver/Src/stm32f3xx_hal_can.o
 .debug_macro   0x0000000000016a23      0x32b Drivers/STM32F3xx_HAL_Driver/Src/stm32f3xx_hal_cortex.o
 .debug_macro   0x0000000000016d4e      0x363 Drivers/STM32F3xx_HAL_Driver/Src/stm32f3xx_hal_gpio.o
 .debug_macro   0x00000000000170b1      0x34f Drivers/STM32F3xx_HAL_Driver/Src/stm32f3xx_hal_rcc.o
 .debug_macro   0x0000000000017400      0x32b Drivers/STM32F3xx_HAL_Driver/Src/stm32f3xx_hal_tim.o
 .debug_macro   0x000000000001772b      0x337 Drivers/STM32F3xx_HAL_Driver/Src/stm32f3xx_hal_tim_ex.o
 .debug_macro   0x0000000000017a62      0x333 Drivers/STM32F3xx_HAL_Driver/Src/stm32f3xx_hal_uart.o
 .debug_macro   0x0000000000017d95      0x1ed Middlewares/Third_Party/FreeRTOS/Source/CMSIS_RTOS/cmsis_os.o
 .debug_macro   0x0000000000017f82       0x58 Middlewares/Third_Party/FreeRTOS/Source/CMSIS_RTOS/cmsis_os.o
 .debug_macro   0x0000000000017fda       0x94 Middlewares/Third_Party/FreeRTOS/Source/CMSIS_RTOS/cmsis_os.o
 .debug_macro   0x000000000001806e      0x174 Middlewares/Third_Party/FreeRTOS/Source/CMSIS_RTOS/cmsis_os.o
 .debug_macro   0x00000000000181e2       0x57 Middlewares/Third_Party/FreeRTOS/Source/CMSIS_RTOS/cmsis_os.o
 .debug_macro   0x0000000000018239       0x10 Middlewares/Third_Party/FreeRTOS/Source/CMSIS_RTOS/cmsis_os.o
 .debug_macro   0x0000000000018249       0x35 Middlewares/Third_Party/FreeRTOS/Source/CMSIS_RTOS/cmsis_os.o
 .debug_macro   0x000000000001827e       0xd8 Middlewares/Third_Party/FreeRTOS/Source/CMSIS_RTOS/cmsis_os.o
 .debug_macro   0x0000000000018356      0x168 Middlewares/Third_Party/FreeRTOS/Source/CMSIS_RTOS/cmsis_os.o
 .debug_macro   0x00000000000184be       0xe4 Middlewares/Third_Party/FreeRTOS/Source/CMSIS_RTOS/cmsis_os.o
 .debug_macro   0x00000000000185a2       0x10 Middlewares/Third_Party/FreeRTOS/Source/CMSIS_RTOS/cmsis_os.o
 .debug_macro   0x00000000000185b2       0x1f Middlewares/Third_Party/FreeRTOS/Source/CMSIS_RTOS/cmsis_os.o
 .debug_macro   0x00000000000185d1      0x40f Middlewares/Third_Party/FreeRTOS/Source/CMSIS_RTOS/cmsis_os.o
 .debug_macro   0x00000000000189e0       0xc0 Middlewares/Third_Party/FreeRTOS/Source/CMSIS_RTOS/cmsis_os.o
 .debug_macro   0x0000000000018aa0       0x8c Middlewares/Third_Party/FreeRTOS/Source/CMSIS_RTOS/cmsis_os.o
 .debug_macro   0x0000000000018b2c       0x91 Middlewares/Third_Party/FreeRTOS/Source/CMSIS_RTOS/cmsis_os.o
 .debug_macro   0x0000000000018bbd       0x94 Middlewares/Third_Party/FreeRTOS/Source/CMSIS_RTOS/cmsis_os.o
 .debug_macro   0x0000000000018c51       0x63 Middlewares/Third_Party/FreeRTOS/Source/CMSIS_RTOS/cmsis_os.o
 .debug_macro   0x0000000000018cb4       0x19 Middlewares/Third_Party/FreeRTOS/Source/CMSIS_RTOS/cmsis_os.o
 .debug_macro   0x0000000000018ccd       0xcf Middlewares/Third_Party/FreeRTOS/Source/CMSIS_RTOS/cmsis_os.o
 .debug_macro   0x0000000000018d9c       0x26 Middlewares/Third_Party/FreeRTOS/Source/CMSIS_RTOS/cmsis_os.o
 .debug_macro   0x0000000000018dc2      0x17b Middlewares/Third_Party/FreeRTOS/Source/list.o
 .debug_macro   0x0000000000018f3d      0x201 Middlewares/Third_Party/FreeRTOS/Source/queue.o
 .debug_macro   0x000000000001913e       0x16 Middlewares/Third_Party/FreeRTOS/Source/queue.o
 .debug_macro   0x0000000000019154      0x264 Middlewares/Third_Party/FreeRTOS/Source/tasks.o
 .debug_macro   0x00000000000193b8       0x11 Middlewares/Third_Party/FreeRTOS/Source/tasks.o
 .debug_macro   0x00000000000193c9      0x19e Middlewares/Third_Party/FreeRTOS/Source/portable/GCC/ARM_CM4F/port.o
 .debug_macro   0x0000000000019567      0x1a2 Middlewares/Third_Party/FreeRTOS/Source/portable/MemMang/heap_4.o
 .debug_macro   0x0000000000019709      0x43e Src/can.o
 .debug_macro   0x0000000000019b47       0x22 Src/can.o
 .debug_macro   0x0000000000019b69       0xac Src/can.o
 .debug_macro   0x0000000000019c15      0x3f7 Src/csr.o
 .debug_macro   0x000000000001a00c       0x10 Src/csr.o
 .debug_macro   0x000000000001a01c      0x41e Src/freertos.o
 .debug_macro   0x000000000001a43a       0x3b Src/freertos.o
 .debug_macro   0x000000000001a475       0x16 Src/freertos.o
 .debug_macro   0x000000000001a48b      0x335 Src/gpio.o
 .debug_macro   0x000000000001a7c0      0x3ed Src/led_task.o
 .debug_macro   0x000000000001abad      0x401 Src/main.o
 .debug_macro   0x000000000001afae      0x32b Src/stm32f3xx_hal_msp.o
 .debug_macro   0x000000000001b2d9      0x32b Src/stm32f3xx_hal_timebase_TIM.o
 .debug_macro   0x000000000001b604      0x3e9 Src/stm32f3xx_it.o
 .debug_macro   0x000000000001b9ed      0x331 Src/system_stm32f3xx.o
 .debug_macro   0x000000000001bd1e      0x33f Src/usart.o

.debug_line     0x0000000000000000    0x11a5e
 .debug_line    0x0000000000000000      0xa1b Drivers/STM32F3xx_HAL_Driver/Src/stm32f3xx_hal.o
 .debug_line    0x0000000000000a1b      0xd24 Drivers/STM32F3xx_HAL_Driver/Src/stm32f3xx_hal_can.o
 .debug_line    0x000000000000173f      0xa14 Drivers/STM32F3xx_HAL_Driver/Src/stm32f3xx_hal_cortex.o
 .debug_line    0x0000000000002153      0x99f Drivers/STM32F3xx_HAL_Driver/Src/stm32f3xx_hal_gpio.o
 .debug_line    0x0000000000002af2      0xd31 Drivers/STM32F3xx_HAL_Driver/Src/stm32f3xx_hal_rcc.o
 .debug_line    0x0000000000003823     0x1995 Drivers/STM32F3xx_HAL_Driver/Src/stm32f3xx_hal_tim.o
 .debug_line    0x00000000000051b8      0xf99 Drivers/STM32F3xx_HAL_Driver/Src/stm32f3xx_hal_tim_ex.o
 .debug_line    0x0000000000006151     0x1289 Drivers/STM32F3xx_HAL_Driver/Src/stm32f3xx_hal_uart.o
 .debug_line    0x00000000000073da      0xc75 Middlewares/Third_Party/FreeRTOS/Source/CMSIS_RTOS/cmsis_os.o
 .debug_line    0x000000000000804f      0x5f7 Middlewares/Third_Party/FreeRTOS/Source/list.o
 .debug_line    0x0000000000008646      0xb05 Middlewares/Third_Party/FreeRTOS/Source/queue.o
 .debug_line    0x000000000000914b      0xe92 Middlewares/Third_Party/FreeRTOS/Source/tasks.o
 .debug_line    0x0000000000009fdd      0x68c Middlewares/Third_Party/FreeRTOS/Source/portable/GCC/ARM_CM4F/port.o
 .debug_line    0x000000000000a669      0x6aa Middlewares/Third_Party/FreeRTOS/Source/portable/MemMang/heap_4.o
 .debug_line    0x000000000000ad13      0xbaf Src/can.o
 .debug_line    0x000000000000b8c2      0xac6 Src/csr.o
 .debug_line    0x000000000000c388      0xbd2 Src/freertos.o
 .debug_line    0x000000000000cf5a      0x84f Src/gpio.o
 .debug_line    0x000000000000d7a9      0xa8b Src/led_task.o
 .debug_line    0x000000000000e234      0xad9 Src/main.o
 .debug_line    0x000000000000ed0d      0x843 Src/stm32f3xx_hal_msp.o
 .debug_line    0x000000000000f550      0x875 Src/stm32f3xx_hal_timebase_TIM.o
 .debug_line    0x000000000000fdc5      0xb28 Src/stm32f3xx_it.o
 .debug_line    0x00000000000108ed      0x86e Src/system_stm32f3xx.o
 .debug_line    0x000000000001115b      0x884 Src/usart.o
 .debug_line    0x00000000000119df       0x7f startup/startup_stm32f303x8.o

.debug_str      0x0000000000000000    0x91a7a
 .debug_str     0x0000000000000000    0x8600d Drivers/STM32F3xx_HAL_Driver/Src/stm32f3xx_hal.o
                                      0x86316 (size before relaxing)
 .debug_str     0x000000000008600d      0x805 Drivers/STM32F3xx_HAL_Driver/Src/stm32f3xx_hal_can.o
                                      0x86443 (size before relaxing)
 .debug_str     0x0000000000086812      0x2a6 Drivers/STM32F3xx_HAL_Driver/Src/stm32f3xx_hal_cortex.o
                                      0x862a9 (size before relaxing)
 .debug_str     0x0000000000086ab8      0x2fe Drivers/STM32F3xx_HAL_Driver/Src/stm32f3xx_hal_gpio.o
                                      0x85f6e (size before relaxing)
 .debug_str     0x0000000000086db6      0x3f7 Drivers/STM32F3xx_HAL_Driver/Src/stm32f3xx_hal_rcc.o
                                      0x86106 (size before relaxing)
 .debug_str     0x00000000000871ad     0x1138 Drivers/STM32F3xx_HAL_Driver/Src/stm32f3xx_hal_tim.o
                                      0x86dab (size before relaxing)
 .debug_str     0x00000000000882e5      0x5c6 Drivers/STM32F3xx_HAL_Driver/Src/stm32f3xx_hal_tim_ex.o
                                      0x86809 (size before relaxing)
 .debug_str     0x00000000000888ab      0x9b0 Drivers/STM32F3xx_HAL_Driver/Src/stm32f3xx_hal_uart.o
                                      0x8689c (size before relaxing)
 .debug_str     0x000000000008925b     0x5d11 Middlewares/Third_Party/FreeRTOS/Source/CMSIS_RTOS/cmsis_os.o
                                       0xc9ec (size before relaxing)
 .debug_str     0x000000000008ef6c      0x234 Middlewares/Third_Party/FreeRTOS/Source/list.o
                                       0x9c7c (size before relaxing)
 .debug_str     0x000000000008f1a0      0x6f5 Middlewares/Third_Party/FreeRTOS/Source/queue.o
                                       0xb2d0 (size before relaxing)
 .debug_str     0x000000000008f895      0xf16 Middlewares/Third_Party/FreeRTOS/Source/tasks.o
                                       0xbd0f (size before relaxing)
 .debug_str     0x00000000000907ab      0x77c Middlewares/Third_Party/FreeRTOS/Source/portable/GCC/ARM_CM4F/port.o
                                       0x7d54 (size before relaxing)
 .debug_str     0x0000000000090f27      0x243 Middlewares/Third_Party/FreeRTOS/Source/portable/MemMang/heap_4.o
                                       0xa3bc (size before relaxing)
 .debug_str     0x000000000009116a      0x3e2 Src/can.o
                                      0x8bea5 (size before relaxing)
 .debug_str     0x000000000009154c       0x76 Src/csr.o
                                      0x8aebd (size before relaxing)
 .debug_str     0x00000000000915c2      0x250 Src/freertos.o
                                      0x8bbab (size before relaxing)
 .debug_str     0x0000000000091812       0x1b Src/gpio.o
                                      0x85cbc (size before relaxing)
 .debug_str     0x000000000009182d       0x24 Src/led_task.o
                                      0x8ae97 (size before relaxing)
 .debug_str     0x0000000000091851       0x45 Src/main.o
                                      0x8bc24 (size before relaxing)
 .debug_str     0x0000000000091896       0x1b Src/stm32f3xx_hal_msp.o
                                      0x85f17 (size before relaxing)
 .debug_str     0x00000000000918b1       0x62 Src/stm32f3xx_hal_timebase_TIM.o
                                      0x8642f (size before relaxing)
 .debug_str     0x0000000000091913       0xb0 Src/stm32f3xx_it.o
                                      0x8b50c (size before relaxing)
 .debug_str     0x00000000000919c3       0x6e Src/system_stm32f3xx.o
                                      0x85c9f (size before relaxing)
 .debug_str     0x0000000000091a31       0x1a Src/usart.o
                                      0x8617d (size before relaxing)
 .debug_str     0x0000000000091a4b       0x2f startup/startup_stm32f303x8.o
                                         0x76 (size before relaxing)

.comment        0x0000000000000000       0x7f
 .comment       0x0000000000000000       0x7f Drivers/STM32F3xx_HAL_Driver/Src/stm32f3xx_hal.o
                                         0x80 (size before relaxing)
 .comment       0x000000000000007f       0x80 Drivers/STM32F3xx_HAL_Driver/Src/stm32f3xx_hal_can.o
 .comment       0x000000000000007f       0x80 Drivers/STM32F3xx_HAL_Driver/Src/stm32f3xx_hal_cortex.o
 .comment       0x000000000000007f       0x80 Drivers/STM32F3xx_HAL_Driver/Src/stm32f3xx_hal_gpio.o
 .comment       0x000000000000007f       0x80 Drivers/STM32F3xx_HAL_Driver/Src/stm32f3xx_hal_rcc.o
 .comment       0x000000000000007f       0x80 Drivers/STM32F3xx_HAL_Driver/Src/stm32f3xx_hal_tim.o
 .comment       0x000000000000007f       0x80 Drivers/STM32F3xx_HAL_Driver/Src/stm32f3xx_hal_tim_ex.o
 .comment       0x000000000000007f       0x80 Drivers/STM32F3xx_HAL_Driver/Src/stm32f3xx_hal_uart.o
 .comment       0x000000000000007f       0x80 Middlewares/Third_Party/FreeRTOS/Source/CMSIS_RTOS/cmsis_os.o
 .comment       0x000000000000007f       0x80 Middlewares/Third_Party/FreeRTOS/Source/list.o
 .comment       0x000000000000007f       0x80 Middlewares/Third_Party/FreeRTOS/Source/queue.o
 .comment       0x000000000000007f       0x80 Middlewares/Third_Party/FreeRTOS/Source/tasks.o
 .comment       0x000000000000007f       0x80 Middlewares/Third_Party/FreeRTOS/Source/portable/GCC/ARM_CM4F/port.o
 .comment       0x000000000000007f       0x80 Middlewares/Third_Party/FreeRTOS/Source/portable/MemMang/heap_4.o
 .comment       0x000000000000007f       0x80 Src/can.o
 .comment       0x000000000000007f       0x80 Src/csr.o
 .comment       0x000000000000007f       0x80 Src/freertos.o
 .comment       0x000000000000007f       0x80 Src/gpio.o
 .comment       0x000000000000007f       0x80 Src/led_task.o
 .comment       0x000000000000007f       0x80 Src/main.o
 .comment       0x000000000000007f       0x80 Src/stm32f3xx_hal_msp.o
 .comment       0x000000000000007f       0x80 Src/stm32f3xx_hal_timebase_TIM.o
 .comment       0x000000000000007f       0x80 Src/stm32f3xx_it.o
 .comment       0x000000000000007f       0x80 Src/system_stm32f3xx.o
 .comment       0x000000000000007f       0x80 Src/usart.o

.debug_frame    0x0000000000000000     0x30a0
 .debug_frame   0x0000000000000000      0x1cc Drivers/STM32F3xx_HAL_Driver/Src/stm32f3xx_hal.o
 .debug_frame   0x00000000000001cc      0x2e4 Drivers/STM32F3xx_HAL_Driver/Src/stm32f3xx_hal_can.o
 .debug_frame   0x00000000000004b0      0x12c Drivers/STM32F3xx_HAL_Driver/Src/stm32f3xx_hal_cortex.o
 .debug_frame   0x00000000000005dc       0xec Drivers/STM32F3xx_HAL_Driver/Src/stm32f3xx_hal_gpio.o
 .debug_frame   0x00000000000006c8      0x17c Drivers/STM32F3xx_HAL_Driver/Src/stm32f3xx_hal_rcc.o
 .debug_frame   0x0000000000000844      0xa18 Drivers/STM32F3xx_HAL_Driver/Src/stm32f3xx_hal_tim.o
 .debug_frame   0x000000000000125c      0x45c Drivers/STM32F3xx_HAL_Driver/Src/stm32f3xx_hal_tim_ex.o
 .debug_frame   0x00000000000016b8      0x55c Drivers/STM32F3xx_HAL_Driver/Src/stm32f3xx_hal_uart.o
 .debug_frame   0x0000000000001c14      0x584 Middlewares/Third_Party/FreeRTOS/Source/CMSIS_RTOS/cmsis_os.o
 .debug_frame   0x0000000000002198       0x6c Middlewares/Third_Party/FreeRTOS/Source/list.o
 .debug_frame   0x0000000000002204      0x2b4 Middlewares/Third_Party/FreeRTOS/Source/queue.o
 .debug_frame   0x00000000000024b8      0x4e8 Middlewares/Third_Party/FreeRTOS/Source/tasks.o
 .debug_frame   0x00000000000029a0       0xf0 Middlewares/Third_Party/FreeRTOS/Source/portable/GCC/ARM_CM4F/port.o
 .debug_frame   0x0000000000002a90       0xac Middlewares/Third_Party/FreeRTOS/Source/portable/MemMang/heap_4.o
 .debug_frame   0x0000000000002b3c       0xb4 Src/can.o
 .debug_frame   0x0000000000002bf0       0x88 Src/csr.o
 .debug_frame   0x0000000000002c78       0xf0 Src/freertos.o
 .debug_frame   0x0000000000002d68       0x34 Src/gpio.o
 .debug_frame   0x0000000000002d9c       0x40 Src/led_task.o
 .debug_frame   0x0000000000002ddc       0x78 Src/main.o
 .debug_frame   0x0000000000002e54       0x2c Src/stm32f3xx_hal_msp.o
 .debug_frame   0x0000000000002e80       0x50 Src/stm32f3xx_hal_timebase_TIM.o
 .debug_frame   0x0000000000002ed0       0xf0 Src/stm32f3xx_it.o
 .debug_frame   0x0000000000002fc0       0x30 Src/system_stm32f3xx.o
 .debug_frame   0x0000000000002ff0       0x5c Src/usart.o
 .debug_frame   0x000000000000304c       0x2c /home/delusion/bin/Ac6_SystemWorkbench/plugins/fr.ac6.mcu.externaltools.arm-none.linux64_1.17.0.201812190825/tools/compiler/bin/../lib/gcc/arm-none-eabi/7.3.1/../../../../arm-none-eabi/lib/thumb/v7e-m/fpv4-sp/hard/libc_nano.a(lib_a-init.o)
 .debug_frame   0x0000000000003078       0x28 /home/delusion/bin/Ac6_SystemWorkbench/plugins/fr.ac6.mcu.externaltools.arm-none.linux64_1.17.0.201812190825/tools/compiler/bin/../lib/gcc/arm-none-eabi/7.3.1/../../../../arm-none-eabi/lib/thumb/v7e-m/fpv4-sp/hard/libc_nano.a(lib_a-memcpy-stub.o)
